:1000000000100020690B0000F9310000F9310000F8
:10001000F9310000F9310000F9310000F931000038
:10002000F9310000F9310000F9310000F931000028
:10003000F9310000F9310000F9310000F931000018
:10004000F9310000F9310000F9310000F931000008
:10005000F9310000F9310000F9310000F9310000F8
:10006000F9310000F9310000F9310000F9310000E8
:10007000F92C0000F9310000F9310000F9310000DD
:10008000F9310000F9310000F9310000F9310000C8
:10009000F9310000210F0000F9310000F9310000B2
:1000A000F9310000F9310000F9310000F9310000A8
:1000B000F9310000F9310000F9310000F931000098
:1000C000F9310000F9310000F9310000F931000088
:1000D000F9310000F9310000F9310000F931000078
:1000E000F9310000F9310000F9310000F931000068
:1000F000F9310000F9310000F9310000F931000058
:10010000F9310000F9310000F9310000F931000047
:10011000F9310000F9310000F9310000F931000037
:10012000F9310000F9310000F9310000F931000027
:10013000F9310000F9310000F9310000F931000017
:100140000348044B834202D0034B03B11847704766
:10015000441000204410002000000000064B074916
:10016000C91A891048BF0131491003D0044B0BB1A3
:1001700001481847704700BF441000204410002079
:100180000000000010B5064C237843B9FFF7D8FFF4
:10019000044B13B10448AFF300800123237010BD5A
:1001A00076120020000000004003020008B5054B55
:1001B0001BB105490548AFF30080BDE80840FFF7D3
:1001C000CDBF00BF0000000044100020400302002B
:1001D000A3F5803A704700BF174B002B08BF134BA5
:1001E0009D46FFF7F5FF00218B460F461348144A42
:1001F000121A03F005F90E4B002B00D098470D4B57
:10020000002B00D098470020002104000D000D486D
:10021000002802D00C48AFF3008002F029FF200034
:10022000290002F0C0FF02F011FF00BF000008002B
:10023000000000000000000000100020441000201A
:1002400080120020000000000000000038B50D4BB7
:10025000044633F810300D46CB40DB0704D440F29F
:100260000141094802F0DCFF3022012302FB04F0C7
:1002700042F2100200F1A040AB4000F57030835014
:1002800038BD00BFAE3400006034000038B50D4BFF
:10029000044633F810300D46CB40DB0704D44FF44E
:1002A0008661094802F0BCFF3022012302FB04F002
:1002B00041F2100200F1A040AB4000F570308350D5
:1002C00038BD00BFAE3400006034000007B5042123
:1002D0008DF807000120FFF7B9FF03210220FFF787
:1002E000B5FF074B012218680DF1070101F012F864
:1002F00003210220FFF7CAFF03B05DF804FB00BF33
:100300002010002038B504460D4601200421FFF7D7
:10031000BDFF03210220FFF799FF064B21462A4625
:10032000186800F0F7FFBDE8384003210220FFF70E
:10033000ADBF00BF201000202DE9F04FBDB001235C
:1003400004220321022001F03FFF0123042218466A
:10035000114601F039FF012304220621022001F099
:1003600033FF0123142404221946184601F02CFF00
:1003700006210220FFF76AFF0A2002F05DFB06213A
:100380000220FFF783FF782002F056FBEF20FFF7F3
:100390009DFFEB20FFF79AFF012101A88DF8044093
:1003A000FFF7B0FFFE20FFF791FFEF20FFF78EFF72
:1003B000EB20FFF78BFF012102A88DF80840FFF723
:1003C000A1FF8420FFF782FF4023FF260A274FF07A
:1003D00021084FF0000B012103A88DF80C30FFF726
:1003E00091FF8520FFF772FF012104A88DF81060AE
:1003F000FFF788FF8620FFF769FF0DEB040001215E
:100400008DF81460FFF77EFF8720FFF75FFF012163
:1004100006A88DF81860FFF775FF8820FFF756FFD4
:10042000012107A88DF81C70FFF76CFF8920FFF7EA
:100430004DFF012108A88DF82080FFF763FF8A2077
:10044000FFF744FF012109A88DF824B0FFF75AFFF8
:100450008B20FFF73BFF8023012501210AA88DF89F
:100460002830FFF74FFF8C20FFF730FF29460BA8FD
:100470008DF82C50FFF746FF8D20FFF727FF294608
:100480000CA88DF83050FFF73DFF8E20FFF71EFFC0
:1004900029460DA88DF83460FFF734FF8F20FFF751
:1004A00015FF29460EA88DF83860FFF72BFFB62000
:1004B000FFF70CFF02211AA8ADF868B0FFF722FF82
:1004C0003620FFF703FF182329460FA8B64C8DF8F6
:1004D0003C30FFF717FF3A20FFF7F8FE0523A2464E
:1004E0004FF00609294610A88DF84030FFF70AFFA3
:1004F0009020FFF7EBFE5AF8040B0421209020A86F
:10050000FFF700FFBD20FFF7E1FE294611A88DF897
:100510004490FFF7F7FEBC20FFF7D8FE294612A84B
:100520008DF848B0FFF7EEFE30461326FFF7CEFEFB
:10053000A2889AF8023003211EA8ADF878208DF821
:100540007A30FFF7DFFEC320FFF7C0FE294613A86D
:100550008DF84C60FFF7D6FEC420FFF7B7FE2946A2
:1005600014A88DF85060FFF7CDFEC920FFF7AEFE4E
:1005700022231126294615A88DF85430FFF7C2FE14
:10058000BE20FFF7A3FE294616A88DF85860FFF796
:10059000B9FEE120FFF79AFEB4F8073002211BA84C
:1005A000ADF86C30FFF7AEFEDF20FFF78FFEB4F83A
:1005B0000920E37A03211FA8ADF87C208DF87E3056
:1005C000FFF7A0FEF020FFF781FEE068B4F810B05E
:1005D0004946219021A8ADF888B0FFF793FEF1209D
:1005E000FFF774FED4F81200B4F816A04946239021
:1005F00023A8ADF890A0FFF785FEF220FFF766FE76
:10060000E0684946259025A8ADF898B0FFF77AFE36
:10061000F320FFF75BFED4F812004946279027A885
:10062000ADF8A0A0FFF76EFEED20FFF74FFE238B85
:1006300002211CA8ADF87030FFF764FEAE20FFF772
:1006400045FE77234FF06309294617A88DF85C30E3
:10065000FFF758FECD20FFF739FE294618A88DF880
:100660006090FFF74FFE7020FFF730FED4F81A00BD
:10067000D4F81E102DAB03C394F8222009212DA815
:100680001A70FFF73FFEE820FFF720FE34232946CB
:1006900019A88DF86430FFF735FE6220FFF716FECB
:1006A000D4F82300D4F8271036AB03C3D4F82B00BA
:1006B0000C21186036A8FFF725FE4846FFF706FE16
:1006C000D4F82F00D4F8331039AB03C3D4F8370073
:1006D0000C21186039A8FFF715FE6420FFF7F6FD1E
:1006E000D4F83B00B4F83F2094F84130072129901A
:1006F00029A8ADF8A8208DF8AA30FFF703FE6620E0
:10070000FFF7E4FDD4F84200D4F8461030AB03C341
:10071000B4F84A20394630A81A80FFF7F3FD672065
:10072000FFF7D4FDE06C216D33AB03C3B4F8542064
:10073000394633A81A80FFF7E5FD7420FFF7C6FDA0
:10074000D4F85600B4F85A2094F85C3007212B9066
:100750002BA8ADF8B0208DF8B230FFF7D3FD98206C
:10076000FFF7B4FDB4F85D3002211DA8ADF8743078
:10077000FFF7C8FD3520FFF7A9FD4046FFF7A6FDAE
:100780003046FFF7A3FD782002F056F92920FFF745
:100790009DFD322002F050F929462846FFF776FDEC
:1007A0003DB0BDE8F08F00BFB634000038B50D4B4A
:1007B000044633F810300D46CB40DB0704D44FF429
:1007C0008661094802F02CFD3022012302FB04F06F
:1007D00041F2100200F1A040AB4000F570308350B0
:1007E00038BD00BF1C350000603400002DE9F74F14
:1007F000134E02EB420406EB8416074688469946E0
:1008000000244FF0004B002508EB040A56F8243072
:100810001FFA8AFA2BFA05F21A4207D078194A46CB
:10082000514680B2019302F070FC019B0135202DEE
:10083000F0D10134302CE6D103B0BDE8F08F00BF19
:1008400074F701002DE9F84FF02706460C464F4398
:1008500003EB01080E4B02441FFA88F803EB400A31
:100860001FFA82F9444511D035460AEB470B07E0E1
:10087000284621463BF8022B02F047FC0135ADB279
:100880004D45F5D10134F037A4B2EBE7BDE8F88F60
:10089000743500002DE9F04F87B001F015FE0128F6
:1008A0000DD14A4B04205A6E4FF4802348494B66C1
:1008B00001F51041086251035CBF464A53660121AD
:1008C0003A2000F007FF002304220221032001F058
:1008D0007BFC02210320FFF769FF00F0EDFA00F036
:1008E0002BF902F05AFCFFF727FD3B4B0021009348
:1008F000F02308461A4602F027FC4FF02D09DFF8D6
:10090000E0B01BF8014B34B90221032007B0BDE869
:10091000F04FFFF74BBF552C4CD84D2C05D8392C38
:1009200046D82F2C46D92F3C09E04E3C072C41D805
:10093000DFE804F043474040404045040D24274B86
:1009400004EB84041C441FFA89F31D462D2600275E
:1009500014F8012B0292029A3A41D2071BD54FF0AC
:10096000000806F1030A1FFA8AFA314605EB08006F
:1009700080B20022CDE90301059302F0C6FB049981
:100980000398013189B25145059BF2D108F1010864
:10099000B8F1050FE9D101370336072FB6B2DAD126
:1009A000053503F11902ADB292B29542CED101E004
:1009B000432C08D009F11E09A3E70E24BFE70F243A
:1009C000BDE70C24BBE70B24B9E700BF0080005053
:1009D0000090005000A00050743500002435000045
:1009E0001535000070B50026154D0A243C23502211
:1009F00096215F20FFF726FF2B78B3FBF4F204FB70
:100A00001234092BE4B24FF0000315D996215F2070
:100A1000FFF7ECFE0023224696218720FFF7E6FE33
:100A20004FF47A7002F008F82B780133DBB2142B04
:100A30002B70DAD92E70D8E7224696217320EDE785
:100A40007712002010B5234C00F0FEFF01F0ECF906
:100A5000236F23F0070343F00303236702F040FCF6
:100A60001D4B00209B6A9B075EBF01221B4B9A62B5
:100A7000D4F8203123F0030343F00203C4F82031FB
:100A8000D4F8243123F0070343F00203C4F82431DF
:100A9000D4F8403123F0030343F00203C4F840319B
:100AA000D4F8603123F0030343F00203C4F860314B
:100AB000D4F8403223F0030343F00203C4F8403279
:100AC000D4F8003223F0070343F00203C4F80032E5
:100AD00010BD00BF0080005000C0005000E000507A
:100AE00008B501F0F1FC01280ED1104B04205A6E1C
:100AF0004FF480230E49520358BF0E4A4B6601F54E
:100B00001041086258BF536601F016FE02F070FBF8
:100B100001F0A2FD01F0FAFD01F0C0FDFFF792FF28
:100B200001F0AAFDBDE8084002F059BB008000506A
:100B30000090005000A00050024B0349186800F0DC
:100B4000BBBA00BF20100020001000200348044A58
:100B50000449121A921002F050BB00BF9803020021
:100B6000980302008012002008B500F02FF8FFF76C
:100B7000EDFF124B12498B4212D30020114B124948
:100B80008B4218D3FFF728FB186850F822405868AA
:100B900040F82240013298688242F5D30C33EAE7EC
:100BA0000022F8E71C6844F8220001325C68A24287
:100BB000F8D30833E4E70022F8E700BF4803020057
:100BC00054030200540302005403020010B54FF412
:100BD00000414FF0FF30124B124A9A60D3F8882040
:100BE00042F47002C3F888200F4A916601F18841EF
:100BF00001F5005210664FF6DF7050660220C3F810
:100C0000D000BFF34F8FBFF36F8F08244FF44033F2
:100C10000648C0F88041D36004600B6110BD00BF7E
:100C200000ED00E0000000000090005000E100E056
:100C3000014B1868704700BF28100020084B1B6F3D
:100C400003F00703022B04D0032B05D0012B05D0A2
:100C5000FEE7044B18687047034BFBE703487047F7
:100C6000008000502810002030100020002D31019D
:100C700008B5FFF7E3FF054B1B6FC3F303330133E5
:100C8000B0FBF3F0024B186008BD00BF00800050BD
:100C9000241000200048704700B4C404014B1868B9
:100CA000704700BF30100020054B1860054B1B6FCC
:100CB00003F00703032B01D1FFF7DABF704700BF32
:100CC000301000200080005000487047002D310196
:100CD000014B1868704700BF2C1000202DE9F04F21
:100CE00085B09A46554B06461B780F461546DDF8EB
:100CF0003C909DF844B0DDF85080002B00F09780C8
:100D0000072A00F296800E9B002B00F09280B9F12A
:100D1000000F00F08E80129BB3F5006F00F3898006
:100D2000012803D1109B002B00F08380444B03EB80
:100D300005131B7B002B7ED0424C102200216846FD
:100D400002F05EFB04EB45141022A7BB3946204697
:100D500002F056FB43F210036380BBF1000F03D196
:100D6000E37843F00303E370364A0E9B02EB451C25
:100D7000CCE90193129B6901581E9DF84C30C0F3D9
:100D80000A0003F003039B0643EA001E53582E4853
:100D9000012E00EA03004EEA0003CDF800A05350F4
:100DA00017D0B8F1000F2ED19CF8023068F304136D
:100DB0008CF8023027E00021204602F021FB4FF49E
:100DC00044736380BBF1000FCED1E37843F030036E
:100DD000C9E713230CF1100ECCF80C309CE80F007F
:100DE0008EE80F006FF00301DCF81C20109B61F30C
:100DF0009F02012FCCF81C20CCF8143003D1CCF882
:100E00001890CCF8043000270D4A290102EB051395
:100E100042F80180159A28465A60694622469F602A
:100E20005E7301F063FA384605B0BDE8F08F0748FD
:100E3000FAE70748F8E70748F6E700BF781200200E
:100E4000E0110020E01000200F80FFF3028000F08E
:100E5000018000F0078000F038B5124B05461B7882
:100E6000DBB1E0B102F058FA0F4A00231146147BBF
:100E700054B92B6001251A0101EB03131D738C502B
:100E800002F050FA204638BD0133082B02F110025F
:100E9000EDD102F047FA0548F5E70548F3E70548C4
:100EA000F1E700BF78120020E0110020048000F07C
:100EB000028000F0018000F013B5154B1868002384
:100EC00001908DF8043002F027FA124B1C7824B1FF
:100ED00002F028FA104802B010BD01221A7002F088
:100EE00021FA0E4B01A81C731C7783F82C4083F861
:100EF0003C4083F84C4083F85C4083F86C4083F8B6
:100F00007C4008238DF8073001F0A6F92046E2E77F
:100F1000B4FF010078120020038000F0E0110020EF
:100F20002DE9F041174B1F6D5B6D1F4000D5FEE7AB
:100F300001260025144CDFF85880374218D023686A
:100F4000C8F85060A3B1A168284601316268A16069
:100F50009847637B012B0BD150B90C4B03EB451326
:100F60001A7B60F341021A731A7F60F341021A7709
:100F70000135082D4FEA460604F11004DDD1BDE825
:100F8000F08100BF00000450E0110020E0100020BC
:100F90000020045038B5144602F0BEF90023A364C3
:100FA00084F84C302364237F0546012B03D104F1E0
:100FB000600001F0E1FC636B1BB100212046E26B95
:100FC0009847284602F0AEF9A36D002B03DCBB2145
:100FD000034802F025F9A36D0120013BA36538BD4C
:100FE000B8FF010038B50546B0B1B9B1B2B1B2F53C
:100FF000006F13DC02F090F995F84C3003F0FF0419
:101000001BB102F08FF9064838BD012385F84C303A
:1010100002F088F92046F7E70248F5E70248F3E7CF
:10102000032000F0012000F0022000F02DE9F04341
:1010300087B01646002290F85C700446884680F817
:101040005420C663436347BB4FF4406305686B613C
:101050004369092B24D905F12C03443501274FF0AE
:101060000009A26D0132A265124A0494CDE9027210
:101070000196CDF80090216B04F13802A06A02F0CD
:10108000EBF80123CDE90399CDE9016700932A46E6
:101090004346E16A606A02F0C5F807B0BDE8F08334
:1010A00003D105F120033835D8E705F124033C3599
:1010B000D5E700BF950F00002DE9F04389B0044645
:1010C0008B4F01AE0D460FCF0FC697E8070086E89D
:1010D0000700002C00F009811DB9864809B0BDE861
:1010E000F083002684220021204602F089F92B6833
:1010F000814AA665934200F0BD8002F5804293428A
:10110000EBD129204FF4A0224FF001087B49236046
:1011100000232F4684F85C30261DC4E90B1220659D
:101120000FCF0FC697E80F0086E80F006B7E012BEC
:1011300008BF8DF81230AB7E4BB1012B00F0A080C0
:10114000022B00F0A080032BC7D14FF44073ADF801
:1011500014302B7E0121012B03BF00238DF81130A9
:101160004FF4E133EB683A20039300F0B3FA012126
:10117000206D00F0AFFA2B691A1F0C2AADD8033B83
:10118000286801A98DF8103001F002FAAB6923F448
:101190007F0323F47F432BB94FF48032236803F598
:1011A00080539A602B7A2879697940EA03406B7AF8
:1011B000AA7941EA0341AB7AEE7E42EA0342504B00
:1011C0004FEA48184344002E60D11D26C3F81C6620
:1011D000C3F83406C3F82C16C3F83026E97AEA7946
:1011E00042EA0142C3F82026E37BE27A277F207A95
:1011F00094F80980A57A217B94F80D90A67B84F859
:10120000442084F84530002F4AD13B46042200F0A8
:10121000DBFF3B4601224946404600F0D5FFA37F55
:101220000422012B94BF3B4601233146284600F09F
:10123000CBFFE37F3BB90123042294F8451094F8D7
:10124000440000F0C1FF02F067F82E4B1A78002A24
:1012500040D101221A7002F065F801F053FBFFF74C
:101260002BFE002104F12400FFF7F6FD0146A0B398
:10127000254833E728204FF48022B046234946E72B
:101280004FF4007363E74FF4807360E71C25C3F8E5
:101290001C56C3F83406C3F82C16C3F83026A3E74F
:1012A0000023012200F090FF00230422494640461B
:1012B00000F08AFFA37F0222012B94BF00230123A9
:1012C0003146284600F080FFE37F002BBBD101238D
:1012D0000222B2E702F026F8C1E704F12800FFF786
:1012E000BBFD00283FF4FAAEC2E70948F6E600BFAE
:1012F0000C000200022000F000C0055002000500B2
:1013000000C0035079120020092000F00200040000
:10131000012000F070B5037F0446012B0D461646F0
:101320000DD0FFF75FFE48B9324629462046054BEF
:10133000FFF77CFE204601F0AEFFA06C70BD0248B6
:10134000FCE700BF8D320000082000F0044BD3F80A
:101350008420D206FBD4D3F88400C0F381107047F8
:101360000040005038B5104B0546D3F820310C46EC
:1013700003F00303022B0BD0032B0DD0012B0FD155
:10138000FFF756FC052305B1286004B1236038BD82
:10139000FFF784FC0323F6E7FFF796FC0223F2E74E
:1013A00001230020EFE700BF00800050F7B50027C1
:1013B000114B0197D3F88041064604F00304012C39
:1013C0000D4608D0022C12D041F2B1310B4801F089
:1013D00027FF3C4604E0394601A8FFF7C3FF0F246E
:1013E0000EB1019B336005B12C6003B0F0BDFFF777
:1013F0006BFC0190F4E700BF008000502800020061
:1014000038B51A4B0546D3F824010C4600F0070006
:10141000062821D8DFE800F0280410181C0C14005E
:10142000FFF706FC052305B1286004B1236038BD31
:10143000FFF7FEFB0623F6E7FFF730FC0323F2E796
:10144000FFF72CFC0423EEE7FFF73EFC0223EAE75C
:1014500001F0DEFE0723E6E7054840F6A87101F03B
:10146000DFFE00231846DEE70123DCE700800050A2
:101470002800020038B5104B0546D3F840310C4621
:1014800003F00303022B0BD0032B0DD0012B0FD144
:1014900001F0C0FE092305B1286004B1236038BD06
:1014A000FFF716FC0823F6E701F0B7FE0B23F2E77F
:1014B00001230020EFE700BF0080005038B5164B35
:1014C0000546D3F800020C4600F00700042819D89E
:1014D000DFE800F020030B0F130001F09BFE09234F
:1014E00005B1286004B1236038BDFFF7F1FB082384
:1014F000F6E701F092FE0B23F2E7FFF7B9FB0E23AC
:10150000800AEDE7054841F26F4101F089FE0023B2
:101510001846E5E70123E3E70080005028000200B9
:1015200038B5124B0546D3F840320C4603F003039E
:10153000022B0BD0032B0DD0012B0FD101F06AFE33
:10154000092305B1286004B1236038BDFFF7C0FB53
:101550000823F6E701F061FE0B23F2E7044841F2AD
:10156000FA3101F05DFE00231846EAE700800050E2
:101570002800020038B5104B0546D3F860310C4600
:1015800003F00303022B0BD0032B0DD0012B0FD143
:1015900001F040FE092305B1286004B1236038BD85
:1015A000FFF796FB0823F6E701F037FE0B23F2E77F
:1015B00001230020EFE700BF0080005010B40F4C63
:1015C0000B46D4F8204204F00304012C0ED0022C68
:1015D00010D008B1002101600BB100221A6040F662
:1015E000D27107485DF8044B01F01ABE5DF8044B58
:1015F000FFF7B8BE5DF8044BFFF73CBF008000501A
:101600002800020010B5B0F5207F34D009D8B0F51D
:10161000007F2AD003D898B1B0F5C07F10D0002445
:1016200021E0B0F5607FFAD1154BD3F88030C3F3D9
:1016300001149B0617D5032C15D040F295210FE01D
:101640000F4B1C6F230B13F00E0FC4F303340AD09F
:10165000072C08D00F2C06D0032C04D040F2852193
:10166000084801F0DDFD601C10BD054BD3F890402B
:10167000C4F30464F7E7024B1C6FC4F38024F2E761
:10168000008000502800020010B54FF400320E4BCD
:1016900004469A660020FFF7B5FF604341F67132B9
:1016A0000A4C0B4BA04294BF00200120D969DA6399
:1016B0009A6822F4401242EA00529A60CA0344BF78
:1016C0000022DA6310BD00BF00900050005A620291
:1016D0000000035070B5460904460D460ED140F295
:1016E0002F310D4801F09CFD334604F01F047DB1FD
:1016F00003F580530122A2401A6070BD012E05D06F
:10170000064B074A022E18BF1346EEE7054BECE7DF
:1017100003F50053EEE700BF280002006880005088
:10172000608200506480005030B585B0002380286E
:101730000446019374D02AD8002877D0A0F1200461
:10174000412C32D8412C30D8DFE804F0707370732C
:10175000888888887373923FA8653F7373732F2FAF
:101760002F2F2F2F8D57737373B2AD732F2F2F2FF2
:101770002F2F2F2F2F2F2F2F2F702F707070882F1C
:101780002F2F2F2F2F2F2F2F2F2F2F2F7070B0F5A0
:10179000806F63D024D8B0F5007F55D00BD8B0F55A
:1017A000807F6AD0B0F5C07F40D040F2944143487A
:1017B00001F036FD37E0B0F5607F45D0F5D8B0F5E3
:1017C000207F36D0B0F5407FEFD1FFF751FA0446C5
:1017D0004FF42070FFF716FFB4FBF0F4640831E01B
:1017E000B0F5C06F5AD00DD8B0F5A06F3BD0B0F5B2
:1017F000B06F3DD0B0F5906FD7D1002101A8FFF7B1
:10180000FFFD10E0B0F5E06F4DD0B0F5F06F4FD0B8
:10181000B0F5D06FC9D1002101A8FFF74FFE02E05B
:10182000FFF70CFA0190019805B030BDFFF720FAE0
:10183000F8E7FFF71DFA04464FF42070FFF7E2FEC9
:10184000B4FBF0F40194EEE7FFF7F8F90546204603
:10185000FFF7D8FEB5FBF0F50195E4E7002101A8FC
:10186000FFF780FDDFE7002101A8FFF7A7FEDAE719
:10187000002101A8FFF79AFDD5E702934FF0E0237E
:101880001B695B0705D5FFF7F3F90290029B0193F3
:10189000C9E703A902A8FFF7EDFDF7E7002101A8BA
:1018A000FFF7E8FDBFE7002101A8FFF739FEBAE71F
:1018B000002101A8FFF75EFEB5E700BF2800020087
:1018C00008B58020FFF730FF034B98429EBF4FF4CE
:1018D0008032024B1A6708BD005A620200A0005015
:1018E0001FB50023B0F5807F01937FD027D838281B
:1018F00000F09C800BD82438092810D809280ED86D
:10190000DFE800F06F6F6F6F0D0D670D36855228A1
:1019100067D007D83D283AD03E2800F08C8040F2AE
:10192000795152E08028FAD1454B1B6F03F0070331
:10193000013B032B47D8DFE803F044413F75B0F586
:10194000D06F64D019D8B0F5A06F6FD00AD8B0F5B9
:10195000806F46D0B0F5906FE1D1002001A9FFF76C
:101960004FFD3AE0B0F5B06F33D0B0F5C06FD6D1CF
:10197000002001A9FFF77EFD2FE0B0F5006FECD04D
:101980000AD8B0F5E06F56D0B0F5F06FC7D100209F
:1019900001A9FFF7EFFD20E0B0F5086FBFD1284B9C
:1019A000D3F8003103F00303022B35D0032B37D0DB
:1019B000012B39D1FFF772F9032300E005230193CE
:1019C0000BE00223FBE740F2C6411E4801F028FC71
:1019D00003E0002001A9FFF7E9FC019805B05DF8DC
:1019E00004FB002001A9FFF7BDFCF6E702934FF0CE
:1019F000E0231B695B0705D5FFF73AF90C23039336
:101A0000039BDCE703A902A8FFF734FDF8E70020F9
:101A100001A9FFF753FDE0E7FFF75AF90823CEE7E6
:101A200001F0F6FB0723CAE70123C8E7002001A95C
:101A3000FFF7C4FDD1E7002001A9FFF771FDCCE756
:101A400000800050280002004FF40022034B5A6629
:101A5000012203F580439A62704700BF0090005056
:101A6000F8B5036804460F2B04D940F66D316C4875
:101A700001F0D6FB63680F2B04D94FF43761684837
:101A800001F0CEFBA3680F2B04D940F673316448F4
:101A900001F0C6FB237B0F2B04D940F6763160485A
:101AA00001F0BEFB637B0F2B04D940F679315C4813
:101AB00001F0B6FBA37B3F2B04D940F67C3158489C
:101AC00001F0AEFBE37B3F2B04D940F67F31544855
:101AD00001F0A6FB2369032B04D940F6823150485C
:101AE00001F09EFB6369032B04D940F685314C4815
:101AF00001F096FBE369012B04D940F68831484890
:101B000001F08EFB8020FFF7EBFE032800F08780BA
:101B10004FF40022434B02215A6645F60E03424A17
:101B2000C2F88030414B9962012103F580539962DC
:101B3000936DD903FCD4D4E900131B0543EA016378
:101B4000E17B94F820500B43217BE77E43EA01437D
:101B5000617B6D0143EA0133A17B43EA8113136189
:101B60009169D4E904031B0643EA806301F0004154
:101B70000B43A17E94F823000B43217E43EA0143EB
:101B8000617E43EA01239361136AE66923F00D0342
:101B900094F8221043EA8703002E2DD11362966A2F
:101BA00094F8213045EA031326F033052B4343F024
:101BB000010393621E4D1C4B9A6D35EA0202FBD164
:101BC00002221A4DAA621A659A6D5200FCD41A6953
:101BD000A56822F4700242EA05521A614FF00042F1
:101BE000124B9A6119B9022203F580539A6278B9AF
:101BF0000122104B9A620BE0334343F00803136257
:101C0000936A23F0330303432B4343EA4103936274
:101C100094F824301BB1044B074AC3F88020F8BD68
:101C2000280002000090005000C0005000D000507A
:101C30000300014000E00050F1A7FFFF014B93F9C2
:101C4000000070477A12002010B543680446072B45
:101C500004D940F6B3512A4801F0E2FAA368032BF5
:101C600004D940F6B551264801F0DAFA2378032B5F
:101C700004D940F6B751224801F0D2FA94F9013064
:101C8000002B04DA40F6B9511D4801F0C9FA4FF4AF
:101C900080011C4A637851664FF4D151022002F54D
:101CA000B832516218494F2B48604FF0010028BFED
:101CB0004F2301F5805148601169C903FCD4217894
:101CC00043EA01235361D4E901131B0143EA0123D1
:101CD000617B0B43217B43EA41039360E37BA17B60
:101CE0001B0143EA4113617C0B43217C43EA41031E
:101CF0005360A37C13B16FF4D153536210BD00BF86
:101D0000280002000090005000100250014B188083
:101D1000704700BF36100020014B1880704700BF8D
:101D20003410002010B5B0F5207F65D00ED8B0F586
:101D3000007F4FD003D800B3B0F5C07F1DD040F274
:101D40001231BDE81040344801F06ABAB0F5607F46
:101D5000F5D14C1E012C06D9042904D04FF43D7155
:101D60002D4801F05DFA2D4AD2F8803023F030037F
:101D700043EA0413C2F8803010BD4C1E012C0AD96E
:101D8000102903D8264BCB40DB0704D440F2C721EF
:101D9000214801F045FA01F090FA01F09CFA4FF465
:101DA0008031204B1D4A1967136F23F4704343EAB7
:101DB00004331367FEF75CFF0446FFF7C7FAC0F170
:101DC0000201204601F081FA00F03EF8BDE8104023
:101DD000FFF776BD4C1E1F2C04D940F206310E4889
:101DE00001F01EFA0D4AD2F8903023F0F85343EA7E
:101DF0000463C2F89030BFE74C1E012C04D94FF4A5
:101E00004371054801F00CFA044A136F23F4806310
:101E100043EA84231367AFE72800020000800050E4
:101E2000100101000090005008B50121022000F0CF
:101E300089F801F042FA01F04EFA4FF48032014B7A
:101E40001A6708BD0090005008B54FF4C070FFF746
:101E50006BFCBDE808400449884294BF012102217F
:101E60004FF42070FFF75EBF80F0FA020028ABBF8E
:101E700000F16040054B00F5614000F00F00ACBF81
:101E800090F80003185C0009704700BF14ED00E0F3
:101E900010B5C3B23F2B044604D94FF44D71074827
:101EA00001F0BEF9064B620953F8220004F01F044A
:101EB000E040C04300F0010010BD00BF730002000D
:101EC00000E100E010B500F10C03DBB24B2B04463F
:101ED00004D940F2C221144801F0A2F9EFF31083B3
:101EE000DB0702D50122104610BD2046FFF7D0FFC8
:101EF00002460028F6D12046FFF7B8FF0146EFF36F
:101F0000118313B1B0EB131FECD2084B5B68C3F322
:101F10000803002BE7D0103B58B2FFF7A7FF884219
:101F20008CBF00220122DEE77300020000ED00E01A
:101F3000034A0179D36E23F030030B43D366704715
:101F400000400050F8B50446244BD3F88420D00656
:101F5000FBD4D3F88430C3F381139C423CD0FEF70A
:101F60006DFE012C05460BD11D4B984204D940F261
:101F700092711C4801F054F90121284601F0A5F99D
:101F800001F0C3F94FF00072174B07465A6620461E
:101F900001F0CBF94FF48063104E621E934033671B
:101FA000736E9A0103D4D6F884309B060AD538465E
:101FB00001F0AFF9022C0FD12846BDE8F84000210E
:101FC00001F083B9D6F884309906E9D54FF4F4616D
:101FD000044801F025F9E3E7F8BD00BF00400050D8
:101FE000005A6202BF0002000060005010B50C46AB
:101FF00008B9FEF723FE074B21461B783BB1064B81
:10200000984204D80120BDE81040FFF79BBF022092
:10201000F9E700BF7B120020005A620238B54FF08A
:102020000042264B26495A6601224A604AF6CD31C3
:1020300003F50B235D6C1964154030BB9968C90723
:102040000BD4002401221F4B5A6015B11E4B1F4AAE
:102050001A6401F06BF9204638BD1A498A601C4A9F
:10206000D96ACC0705D4904201D10724EAE70130B0
:10207000F6E79042E5D1F8E70132DC6A14F0080493
:1020800006D08A42F8D10724DFE700221049F4E79E
:102090008A42F8D020220B4B0B495A620122A3F549
:1020A00080539A6023460A4A486A800603D49342C2
:1020B000E9D00133F8E79342C7D1E4E7009000503C
:1020C0000050095000600950004009503254FFFF91
:1020D00040420F0038B54FF00042174B174C5A667C
:1020E000012203F50C235A604AF6CD33656C236454
:1020F000437893401343124AD363C3788178A2682C
:102100009B0043EA011322F074021343A360027997
:10211000837943EA022323614279C37943EA0223A4
:1021200063610078FFF77AFFEB0744BF054B236438
:1021300001F0FCF8012038BD00900050004009502B
:10214000004000503254FFFF38B5032804460D46C6
:1021500005D80B4B33F81030CB40DB0704D44FF4D9
:102160008661084801F05CF830220123544341F2B3
:10217000100204F1A044AB4004F57034A35038BD04
:10218000560102006034000038B5032804460D46AD
:1021900005D80B4B33F81030CB40DB0704D440F2AA
:1021A0000141084801F03CF830220123544342F237
:1021B000100204F1A044AB4004F57034A35038BDC4
:1021C0005601020060340000F8B5032804460D46AD
:1021D00016461F4605D81C4B33F81030CB40DB07A2
:1021E00004D44FF4B071194801F01AF826B1294609
:1021F0002046CFB1FFF7A8FF04EB4403072D4FF0B3
:102200000F014FEA031312D8A80006FA00F281402A
:102210000F48184401F08BF8AEB92946204677B133
:10222000BDE8F840FFF790BFFFF7AEFFE4E7A5F188
:102230000800800006FA00F281400648E9E7BDE8A0
:10224000F840FFF7A1BFF8BD560102000A010200E5
:1022500004C003500CC0035010B5044618B99121B6
:102260001F4800F0DDFF23781B0613F0604F03D0FA
:1022700092211B4800F0D4FFE3780F2B03D995215E
:10228000174800F0CDFF01212020FFF723FA01219C
:102290002120FFF71FFA0122124B5A602278120602
:1022A0009A606178A27842EA01429A61FF229A62BA
:1022B00000229A631A644FF000425A654FF0FF32D1
:1022C0004FF4001103F500531A65074AC2F8801154
:1022D000E3781B01DBB282F81533116010BD00BF3B
:1022E0005E0102000000045000E100E02DE9F04131
:1022F0000126C3B2072805460C46174606FA03F620
:1023000003DDDE21334800F08BFF1CB9DF213148AB
:1023100000F086FF236823F47C1323F00F031BB126
:10232000E2212C4800F07CFFA37A1B0413F47C0FFD
:1023300003D0E721274800F073FFE37A1B0513F071
:102340007E6F03D0E921234800F06AFF237B5B0501
:1023500013F0FE5F03D0EB211E4800F061FF1E4B1F
:10236000DFF87C801E65226803F5005343F82520C2
:10237000302202FB0585637B27F003072B66E37A97
:10238000A27A1B0543EA0243227B43EA4253EB65F0
:102390002F6700F0C1FFD8F85430227A3343C8F8D1
:1023A00054300E4B02B11E64627A02B19E632279F0
:1023B000A37943EA0243084A93616179E37943EAE6
:1023C000014306498B61064B56639E64BDE8F041AC
:1023D00000F0A8BF5E01020000200450001004506D
:1023E0000000045038B5022805460C4603D94C219C
:1023F0000C4800F015FFE378627821785B0143EA2E
:10240000820322790B4343EA02130C226A4302F14E
:10241000B0421363012902BFA278034B43F8252081
:1024200038BD00BFF6010200E880035008B54FF048
:10243000B0435A686AB958B15B680BB100F086FFC7
:1024400001210D4B596000F081FF4FF0B043D9607E
:1024500008BD5B680BB100F079FF0028F0D100F0F7
:1024600075FF4FF0B0430222DA6000F06FFF0122E7
:10247000024B5A60ECE700BF0010005800200058E3
:1024800010B54FF0B0414B680BB100F05FFF012277
:102490000B4BC4785A608378934043EA84034478B2
:1024A0002343047943EA0413447943EAC4038B6069
:1024B000044B5A600378C3F10203CB6010BD00BF28
:1024C0000020005800100058024B1868C0F3074065
:1024D000704700BF0080E00F70B506460C461546F9
:1024E00022B940F2A6210C4800F09AFE24B94FF41C
:1024F0002070FFF719F904466D00013CB4FBF5F4B8
:10250000064B250213EA042304D040F2CB210248F3
:1025100000F086FEF56170BD42020200070080FFF8
:1025200010B5174B0446984208D003F580439842F3
:1025300004D040F25E41134800F072FE012204F51F
:1025400080535A6040F6AA6341F20502636100239A
:102550000D49A360E365E26004F500522361E36185
:10256000E36491640649A3658C4203D1236500238B
:10257000636502E005498C42F8D00123536010BD29
:1025800000C0055042020200FFFF0100000006509B
:1025900038B52E4B044698420D4608D003F58043CB
:1025A000984204D040F28131294800F039FE20469B
:1025B000FFF7B6FF012304F5805253602B8AA16810
:1025C00043F001030B43A97B43EA8123A360A36883
:1025D000297D43EA4173A360AB7C4BB11B49EB7C83
:1025E0008C422BD1A1F51031C1F88C318023D365F9
:1025F0002B7B2046D5E9011243F48053E360FFF7BB
:102600006BFF6B7B0BB1102363616B7D1BB1A36808
:1026100043F48033A360AB7D1BB1A36843F4004354
:10262000A360EB7D2A7E1B07120503F0E04302F452
:10263000E0021343A3652B78636138BD05498C42E2
:1026400004BFA1F52031C1F89C31CFE700C005508F
:10265000420202000000065007B56B46054A1068AA
:10266000516803C36846FFF735FD002003B05DF8ED
:1026700004FB00BF8F02020013B50024064A68461F
:10268000536F43F00103536700948DF80440FFF744
:102690004FFC204602B010BD0040005030B58BB05A
:1026A0006C46174D0FCD0FC40FCD0FC495E8030036
:1026B00084E80300134BD3F84C2112031CD5A3F577
:1026C000FE431C884FF6FF739C4208BF8C248DF894
:1026D0001940FFF7B3FA204480F308008DF8180082
:1026E0000948FEF7E1FA6846FFF7BAF93220FFF72A
:1026F00013FB00200BB030BDD3F85041E4B2E6E745
:10270000980202000080E00F00F0490230B587B067
:10271000084D01AC0FCD0FC42B6801A8236019230D
:102720008DF80530FFF790FA3220FFF7EFFA00201E
:1027300007B030BDC002020010B56FF00403502195
:102740000A480B4C13F0800F03F1010207D1234418
:10275000402A83F800131346F4D1002010BD03F083
:102760000F03043B034419761346EBE700ED00E04A
:1027700000E100E030B50E4C416123688BB9206068
:1027800083600DE0891A9A681D4641616AB113465B
:102790005A698A42F6D935B1A860521A83605A61E3
:1027A00030BD0025F4E72060F7E798608260F7E726
:1027B0006812002038B500F0FAFD0025084B094CDE
:1027C0001A682368C31A2AB123B15169994203D305
:1027D000C91A5161206038BD55615B1A9268F2E7F1
:1027E000681200206412002038B5134D2B685B6915
:1027F00093B1124A022014681C4400F053FA204698
:1028000000F01EFA00230E492A680B70D08880075A
:1028100009D501230B7038BD022000F043FA0220D5
:1028200000F062FAEEE79268002AF4D0506903449F
:10283000012BEBD9EFE700BF6812002064120020E3
:102840007D12002070B516469DF81420C0E90336AD
:102850000271049ABDF818300260002204460D4649
:102860008260C380EEB900F0A2FD2844A0619DB152
:102870002E4600F04AFD0546FFF79CFF31462046F4
:10288000FFF778FF104B1B68A34201D1FFF7ACFFA5
:10289000284600F03EFD02E0E36865617BB9002058
:1028A00070BD00F084FD3044A061002DE0D1E368EC
:1028B0006561002BDDD0204621689847D9E7204686
:1028C00021689847EBE700BF6812002000220C49FE
:1028D0000B687BB183420AD183687AB193608368C5
:1028E0001BB15A6941690A445A61002070471A466F
:1028F0009B68EEE70028EFD0022070470B60EEE700
:102900006812002070B500F007FD144E05463478BB
:10291000FCB9134B1C60134B1C60134B1C8000F064
:1029200051F9012000F0BEF900F048FD0F4B0246BE
:10293000186020B9284600F0F5FC232070BD23461E
:1029400040F2E7310A4800F0F1F90A4B1860012320
:102950003370284600F0E6FC0020EFE77E120020EE
:102960006812002064120020741200206C120020F3
:1029700018FCFFFF6012002070B5044640B300F061
:10298000C4FC144E0546FFF715FF3068A04209D07D
:102990002046FFF79BFF0446B0B1284600F0B9FC83
:1029A000204670BDFFF792FF04460028F5D133683A
:1029B0003BB9022000F082F9284600F0AAFC00246E
:1029C000EEE7FFF711FFF7E73368002BF4D1F0E7EC
:1029D0002224E5E76812002038B50C460546A8B168
:1029E000A1B100230B7000F097FC0121084B1B687C
:1029F00033B900F097FC002038BD9D4204D121700E
:102A00002278002AF9D0F4E79B68F1E72220F3E767
:102A10006812002038B50021044640F2E730054B2B
:102A20004FF47A721D680023E5FB040100F07EF983
:102A300038BD00BF6C12002000B58DB001238DF8A9
:102A40000F30FFF7E7FF00230146CDE90033074AC7
:102A50000DF10F0304A800F084FC18B99DF80F30A5
:102A6000002BFBD10DB05DF804FB00BF5D3300000F
:102A70002DE9F843C20704460BD54E4A13880133AB
:102A80009BB21380FFF796FE4B4B1B680BB1FFF711
:102A9000ABFEA30740F18B8000F03EFC4FF0000836
:102AA00005464646FFF786FE434F3C680CB1636916
:102AB0008BB10022414B012E1A7003D118F0020F86
:102AC00018BF1E70002C6ED0FFF78EFE2846BDE8A2
:102AD000F84300F027BC23465A693AB91A7921799C
:102AE000914288BF1C469B68002BF5D1284600F018
:102AF00019FC2569DDB100F05AFCA269A0EB0208BF
:102B00004FEAE873A84573F1000311DB236913440E
:102B1000A361E368B4F80680013613B1204621684A
:102B2000984700F0F9FB0546FFF744FEBDE7A846CD
:102B300000F0F2FB81462046FFF7C8FE484600F051
:102B4000F1FB2369002BE4D0B5EB08054FEAE873ED
:102B500063EB4303012D73F1000304DA40F22A51C1
:102B6000174800F05DFBA38B33B1E28B13449BB29B
:102B7000B3F57A7F0FD2E38300F0CEFB804629467F
:102B80002046FFF7F7FDA369226940461344A3617D
:102B900000F0C8FBBDE7A3F57A73E383A369013DA9
:102BA000013BA361E8E7022000F088F88EE7BDE86A
:102BB000F88300BF74120020681200207C120020ED
:102BC000D40202001FB500241A4B012118689A880C
:102BD0000290D3F806009B7A00903E20ADF80C20BE
:102BE0008DF80430FEF776FD8DF8084000F0DDFB2F
:102BF0008DF80C0002A8FFF743FC694601208DF810
:102C00000040FFF7EFFB40F2FF320B4B9A615A6135
:102C10004FF0B042936A13F00803FBD11362012016
:102C2000FFF704FC4FF48052044BC3F880211A6074
:102C300004B010BD330302000020005800E100E0A2
:102C400010B5044600F061FB4FF0B042936A1907DB
:102C5000FCD4136A116C5269520604D4CA1A032AAE
:102C600001D88B420ED1E21A022A98BFDC1CB4F1C3
:102C7000FF3F38BF013C4FF0B04340221C6403F5D6
:102C800080539A6100F045FB054A13783BB14FF041
:102C9000B041CB6B43F00203CB630023137010BD34
:102CA0003810002000F001038207034A48BF43F0B8
:102CB00040039361704700BF00100058820700F086
:102CC00001030AD50121064A43F0400311704FF079
:102CD000B041CA6B22F00302CA63024A9361704793
:102CE0003810002000200058830742BF4022014BCB
:102CF0005A6170470010005810B500F00DFB4FF0FE
:102D0000B04304465B695A06074A03F0010003F02A
:102D1000510348BF40F002005361FFF7A9FE20466F
:102D2000BDE8104000F0FEBA0020005853B94AB97F
:102D3000002908BF00281CBF4FF0FF314FF0FF30C3
:102D400000F082B9ADF1080C6DE904CE00F006F890
:102D5000DDF804E0DDE9022304B070472DE9F04F0F
:102D6000099D0C46002B4DD18A420F46844696465B
:102D7000B2FA82F360D94BB102FA03FEC3F120022A
:102D80009F4000FA03FC20FA02F217434FEA1E4666
:102D90001FFA8EF44FEA1C42B7FBF6F106FB1177DF
:102DA00001FB04F042EA0742904208D91EEB0202FE
:102DB00001F1FF3702D2904200F231813946121AF6
:102DC0001FFA8CFCB2FBF6F006FB102200FB04F4A9
:102DD0004CEA024C644508D91EEB0C0C00F1FF32A2
:102DE00002D2644500F21E81104640EA0140ACEB7D
:102DF000040C002125B12CFA03F30022C5E90032AE
:102E0000BDE8F08F8B4205D90DB1C5E90001002165
:102E10000846F5E7B3FA83F100294DD1A342C0F08B
:102E2000F380904280F0F080064623460846002D4D
:102E3000E6D0C5E90063E3E7002B40F0A3808A1ADF
:102E40004FEA1E471FFA8EF60121B2FBF7F407FB8B
:102E500014204FEA1C4242EA004206FB04F0904272
:102E60000FD91EEB020204F1FF382CBF4FF001090D
:102E70004FF00009904203D9B9F1000F00F0CC8067
:102E80004446121A1FFA8CFCB2FBF7F007FB102223
:102E900000FB06F64CEA024C664508D91EEB0C0C0A
:102EA00000F1FF3202D2664500F2B3801046ACEB6F
:102EB000060C40EA04409DE7C1F120068B4004FA6D
:102EC00001FE22FA06F720FA06FCF4408A401F436E
:102ED0004EEA0C0300FA01FE4FEA17484FEA134985
:102EE0001FFA87FCB4FBF8F008FB104449EA0444DD
:102EF00000FB0CF9A1450ED93C1900F1FF3A2CBF9B
:102F00004FF0010B4FF0000BA14503D9BBF1000FAF
:102F100000F08B805046A4EB09041FFA83F9B4FB40
:102F2000F8F308FB134403FB0CFC49EA0444A445F2
:102F300006D93C1903F1FF3801D2A4457BD843469A
:102F400043EA0040A4EB0C04A0FB02984445CC46A5
:102F5000434602D306D1CE4504D20138B9EB020C68
:102F600068EB0703002D6CD0BEEB0C0264EB03048E
:102F700022FA01F304FA06F6CC4000211E43C5E90B
:102F800000643DE702FA03FEC3F1200104FA03F2F4
:102F900000FA03FCCC404FEA1E4720FA01F11FFA69
:102FA0008EF6B4FBF7F00A4307FB1044110C41EA1C
:102FB000044100FB06F48C420ED91EEB010100F126
:102FC000FF382CBF4FF001094FF000098C4202D9A5
:102FD000B9F1000F2CD04046091B92B2B1FBF7F4B7
:102FE00007FB141142EA014204FB06F1914207D9A2
:102FF0001EEB020204F1FF3801D291421ED8444672
:10300000521A44EA004120E7861A64EB03030120C8
:103010000DE7F44402384AE7023C724431E70239D2
:103020007244CCE6F4440238DFE602383C4472E7EE
:1030300002387144D0E7023B3C4481E7023C7244D1
:10304000DEE72946DCE600BF704700BF08B5064B47
:10305000044613B10021AFF30080044B1B6803B199
:103060009847204600F0DDF80000000070120020B4
:1030700070B50D4D00260D4C641BA410A64209D15D
:103080000B4D00260B4C00F0CBF9641BA410A6429C
:1030900005D170BD55F8043B01369847EEE755F869
:1030A000043B01369847F2E73C1000203C1000201A
:1030B0003C10002040100020F0B585B06B4683E83E
:1030C0000300BDF80070BDF804602A20BDF802506E
:1030D000BDF806407FBAFDF7F9F876BA042103A8D7
:1030E000ADF80C70ADF80E60FDF70CF92B20FDF774
:1030F000EDF86DBA042164BA03A8ADF80C50ADF830
:103100000E40FDF7FFF805B0F0BD1FB5EF281446DF
:1031100018D8EF2916D804ABADF80800ADF80A109E
:10312000ADF80C00ADF80E1013E90300FFF7C4FF73
:1031300064BA2C20ADF80440FDF7C8F8022101A8BC
:10314000FDF7E0F804B010BD7FB51D461446531ED0
:10315000ADF8080018446B1EADF80A101944ADF81C
:103160000C0004ABADF80E1013E90300089EFFF746
:10317000A3FF2C206C43FDF7A9F80025AC4201D138
:1031800004B070BD36F8153002215BBA01A8ADF865
:1031900004300135FDF7B6F8F0E7002101230422E1
:1031A0000846FFF711B808B500F012F9FDF772FBF9
:1031B00000F01BF9FDF716FCFAE77047FDF7BCBC01
:1031C00008B500F00AF8BDE80840FFF79BBB704760
:1031D000704770477047704770470F20704708B5B9
:1031E00001213A20FEF776FABDE80840FFF7E5BF77
:1031F00001213A20FEF76EBAFEE710B53AB100237E
:1032000050F8234041F8234001339A42F8D110BDD1
:10321000002070474FF4004070474FF47A707047B9
:10322000FEE7FEE710B588B00C460E9900920791B4
:103230000D99024606919DF8301005910B99049165
:103240009DF8281003910021CDE90131084623465D
:10325000FDF744FD08B010BD10B588B004460E98C7
:10326000009207900D98224606909DF83000059038
:103270000B9804909DF8280003900020CDE90130C0
:103280000B460121FDF72AFD08B010BD0123816422
:1032900080F85430704710B504461520FEF712FE32
:1032A00030B994F85430002BFBD005E0FDF738FE20
:1032B00094F85430002BF9D010BD08B5FDF7EAFCA6
:1032C000BDE808400021FEF7DFB90029CCBF01218D
:1032D0000021FEF7D9B902214FF42070FEF722BD7C
:1032E00010B5FDF7C5FC0446FEF730F8C0F1020149
:1032F0002046FFF7EAFF01210020FEF777FEFEF7E8
:10330000A3FDBDE81040FEF7DBBAEFF3108072B604
:10331000704700B962B67047EFF31180302383F332
:103320001188704780F3118870477047704770B5F7
:10333000054614460E46FFF7E8FF2B685C40344014
:103340005C402C60BDE87040FFF7E3BF4FF0B04336
:103350005A6812B19A6A002AFAD1704700230B709A
:103360007047F0B587B01F4600230D461646044649
:103370008DF81730A8B1C3610DF11701FFF72CFBD1
:103380009DF817207AB9BDF83430294602939DF88C
:1033900030302046CDE900733346FFF753FA07B0CB
:1033A000F0BD2220FBE70320F9E7002070474FF033
:1033B000B0439A6A1207FCD4186A704708B53E20D9
:1033C000FEF7B2F90346FFF7F0FF23FA00F008BD5D
:1033D00008B5FDF785FBFFF7F1FEFFF7F1FEFFF7FC
:1033E000F6FEBDE80840FFF7F3BE08B5FFF7F1FEB3
:1033F000FFF7F0FEFFF7EFFEBDE80840FFF7ECBE79
:1034000002440346934200D1704703F8011BF9E7D9
:1034100000000000000000000000000000000000AC
:10342000F8B500BFF8BC08BC9E467047F8B500BFB1
:10343000F8BC08BC9E467047000000000000000079
:10344000000000000000000000000000000000007C
:10345000000000000000000000000000000000006C
:103460002F686F6D652F616261726E696B612F539A
:10347000696D706C696369747953747564696F2FD1
:1034800053444B732F6765636B6F5F73646B2F2FB0
:10349000706C6174666F726D2F656D6C69622F69F7
:1034A0006E632F656D5F6770696F2E680000FF01A6
:1034B0001F00FF000C0008080808600104100E211E
:1034C0000C0245090808262A43707236376F1B0B19
:1034D0000707040E0F09070803180D71ED70701827
:1034E0000F71EF7070181171F17070181371F37023
:1034F000702829F101F100073C00CD674545100017
:103500000000003C0000000154103298108580003B
:10351000004E003E07434F554E540000FF011F0070
:10352000FF000C0000000000003E5149453E0042F3
:103530007F400042615149462141454B31181412E8
:103540007F1027454545393C4A49493001710905F5
:10355000033649494936064949291E3E414141221F
:103560003E4141413E3F4040403F7F0408107F01C3
:10357000017F0101000000000000000000000000C9
:10358000000000000000000000000000000000003B
:10359000000000000000000000000000000000002B
:1035A000000000000000000000000000000000001B
:1035B000000000000000000000000000000000000B
:10562000000000000000FFFFFFF7BEF79FF7BEF786
:10563000BEF79EF79EF7BEF79EF7BEF79EF79EF762
:105640009EF7BEF7BEF79EF79EF79EF7BEF79EF752
:105650009EF79EF7BEF7BEF79EF7BEF7DFFFBEF7D9
:10566000FFFFFFFF0000000000000000000000003E
:10567000000000000000000000000000000000002A
:10568000000000000000000000000000000000001A
:10569000000000000000000000000000000000000A
:1056A00000000000000000000000000000000000FA
:1056B00000000000000000000000000000000000EA
:1056C00000000000000000000000000000000000DA
:1056D00000000000000000000000000000000000CA
:1056E00000000000000000000000000000000000BA
:1056F00000000000000000000000000000000000AA
:105700000000000000000000000000000000000099
:105710000000000000000000000000000000000089
:105720000000000000000000000000000000000079
:105730000000000000000000000000000000000069
:105740000000000000000000000000000000000059
:105750000000000000000000000000000000000049
:105760000000000000000000000000000000000039
:105770000000000000000000000000000000000029
:105780000000000000000000000000000000000019
:105790000000000000000000000000000000000009
:1057A00000000000000000000000000000000000F9
:1057B00000000000000000000000000000000000E9
:1057C00000000000000000000000000000000000D9
:1057D00000000000000000000000000000000000C9
:1057E00000000000000000000000000000000000B9
:1057F0000000000000000000FFFFFFFFDFFF9EF73A
:105800009EF7BEF79EF79EF79EF79EF79EF79EF7D0
:105810009EF79EF79EF79EF79EF79EF79EF79EF7E0
:105820009EF79EF79EF79EF79EF79EF79EF79EF7D0
:105830009EF79EF79EF79EF79EF79EF79EF79EF7C0
:10584000BEF79EF79EF7BEF7BEF7BFF7BFF7FFFFA5
:105850000000000000000000000000000000000048
:105860000000000000000000000000000000000038
:105870000000000000000000000000000000000028
:105880000000000000000000000000000000000018
:105890000000000000000000000000000000000008
:1058A00000000000000000000000000000000000F8
:1058B00000000000000000000000000000000000E8
:1058C00000000000000000000000000000000000D8
:1058D00000000000000000000000000000000000C8
:1058E00000000000000000000000000000000000B8
:1058F00000000000000000000000000000000000A8
:105900000000000000000000000000000000000097
:105910000000000000000000000000000000000087
:105920000000000000000000000000000000000077
:105930000000000000000000000000000000000067
:105940000000000000000000000000000000000057
:105950000000000000000000000000000000000047
:105960000000000000000000000000000000000037
:105970000000000000000000000000000000000027
:105980000000000000000000000000000000000017
:105990000000000000000000000000000000000007
:1059A00000000000000000000000000000000000F7
:1059B00000000000000000000000000000000000E7
:1059C0000000000000000000000000000000FFFFD9
:1059D000FFFFBFF79EF79EF79EF79EF79EF79EF795
:1059E0009EF79EF79EF79EF79EF79EF79EF79EF70F
:1059F0009EF79EF79EF79EF79EF79EF79EF79EF7FF
:105A00009EF79EF79EF79EF79EF79EF79EF79EF7EE
:105A10009EF79EF79EF79EF79EF79EF79EF79EF7DE
:105A20009EF79EF79EF79EF79EF79EF7BEF79EF7AE
:105A3000BEF7BEF7BEF7BEF7FFFF00000000000094
:105A40000000000000000000000000000000000056
:105A50000000000000000000000000000000000046
:105A60000000000000000000000000000000000036
:105A70000000000000000000000000000000000026
:105A80000000000000000000000000000000000016
:105A90000000000000000000000000000000000006
:105AA00000000000000000000000000000000000F6
:105AB00000000000000000000000000000000000E6
:105AC00000000000000000000000000000000000D6
:105AD00000000000000000000000000000000000C6
:105AE00000000000000000000000000000000000B6
:105AF00000000000000000000000000000000000A6
:105B00000000000000000000000000000000000095
:105B10000000000000000000000000000000000085
:105B20000000000000000000000000000000000075
:105B30000000000000000000000000000000000065
:105B40000000000000000000000000000000000055
:105B50000000000000000000000000000000000045
:105B60000000000000000000000000000000000035
:105B70000000000000000000000000000000000025
:105B80000000000000000000000000000000000015
:105B90000000000000000000000000000000000005
:105BA000000000000000FFFFFFF7BEF79EF79EF722
:105BB0009EF79EF79EF79EF79EF79EF79EF79EF73D
:105BC0009EF79EF79EF79EF79EF79EF79EF79EF72D
:105BD0009EF79EF79EF79EF79EF79EF79EF79EF71D
:105BE0009EF79EF79EF79EF79EF79EF79EF79EF70D
:105BF0009EF79EF79EF79EF79EF79EF79EF79EF7FD
:105C00009EF79EF79EF79EF79EF79EF79EF79EF7EC
:105C10009EF79EF79EF79EF79EF7BEF7BEF7BEF77C
:105C2000FFFF000000000000000000000000000076
:105C30000000000000000000000000000000000064
:105C40000000000000000000000000000000000054
:105C50000000000000000000000000000000000044
:105C60000000000000000000000000000000000034
:105C70000000000000000000000000000000000024
:105C80000000000000000000000000000000000014
:105C90000000000000000000000000000000000004
:105CA00000000000000000000000000000000000F4
:105CB00000000000000000000000000000000000E4
:105CC00000000000000000000000000000000000D4
:105CD00000000000000000000000000000000000C4
:105CE00000000000000000000000000000000000B4
:105CF00000000000000000000000000000000000A4
:105D00000000000000000000000000000000000093
:105D10000000000000000000000000000000000083
:105D20000000000000000000000000000000000073
:105D30000000000000000000000000000000000063
:105D40000000000000000000000000000000000053
:105D50000000000000000000000000000000000043
:105D60000000000000000000000000000000000033
:105D70000000000000000000000000000000000023
:105D8000FFFF9FF7BEF79EF79EF79EF79EF79EF7E1
:105D90009EF79EF79EF79EF79EF79EF79EF79EF75B
:105DA0009EF79EF79EF79EF79EF79EF79EF79EF74B
:105DB0009EF79EF79EF79EF79EF79EF79EF79EF73B
:105DC0009EF79EF79EF79EF79EF79EF79EF79EF72B
:105DD0009EF79EF79EF79EF79EF79EF79EF79EF71B
:105DE0009EF79EF79EF79EF79EF79EF79EF79EF70B
:105DF0009EF79EF79EF79EF79EF79EF79EF79EF7FB
:105E00009EF79EF79EF79FF7FFFF0000000000003F
:105E10000000000000000000000000000000000082
:105E20000000000000000000000000000000000072
:105E30000000000000000000000000000000000062
:105E40000000000000000000000000000000000052
:105E50000000000000000000000000000000000042
:105E60000000000000000000000000000000000032
:105E70000000000000000000000000000000000022
:105E80000000000000000000000000000000000012
:105E90000000000000000000000000000000000002
:105EA00000000000000000000000000000000000F2
:105EB00000000000000000000000000000000000E2
:105EC00000000000000000000000000000000000D2
:105ED00000000000000000000000000000000000C2
:105EE00000000000000000000000000000000000B2
:105EF00000000000000000000000000000000000A2
:105F00000000000000000000000000000000000091
:105F10000000000000000000000000000000000081
:105F20000000000000000000000000000000000071
:105F30000000000000000000000000000000000061
:105F40000000000000000000000000000000000051
:105F500000000000000000000000FFFFBEF7BEF7D9
:105F60009EF79EF79EF79EF79EF79EF79EF79EF789
:105F70009EF79EF79EF79EF79EF79EF79EF79EF779
:105F80009EF79EF79EF79EF79EF79EF79EF79EF769
:105F90009EF79EF79EF79EF79EF79EF79EF79EF759
:105FA0009EF79EF79EF79EF79EF79EF79EF79EF749
:105FB0009EF79EF79EF79EF79EF79EF79EF79EF739
:105FC0009EF79EF79EF79EF79EF79EF79EF79EF729
:105FD0009EF79EF79EF79EF79EF79EF79EF79EF719
:105FE0009EF79EF79EF79EF7BEF79EF7BEF7FFFF60
:105FF00000000000000000000000000000000000A1
:106000000000000000000000000000000000000090
:106010000000000000000000000000000000000080
:106020000000000000000000000000000000000070
:106030000000000000000000000000000000000060
:106040000000000000000000000000000000000050
:106050000000000000000000000000000000000040
:106060000000000000000000000000000000000030
:106070000000000000000000000000000000000020
:106080000000000000000000000000000000000010
:106090000000000000000000000000000000000000
:1060A00000000000000000000000000000000000F0
:1060B00000000000000000000000000000000000E0
:1060C00000000000000000000000000000000000D0
:1060D00000000000000000000000000000000000C0
:1060E00000000000000000000000000000000000B0
:1060F00000000000000000000000000000000000A0
:10610000000000000000000000000000000000008F
:10611000000000000000000000000000000000007F
:10612000000000000000000000000000000000006F
:1061300000000000FFFFBEF79EF7BEF79EF79EF738
:106140009EF79EF79EF79EF79EF79EF79EF79EF7A7
:106150009EF79EF79EF79EF79EF79EF79EF79EF797
:106160009EF79EF79EF79EF79EF79EF79EF79EF787
:106170009EF79EF79EF79EF79EF79EF79EF79EF777
:106180009EF79EF79EF79EF79EF79EF79EF79EF767
:106190009EF79EF79EF79EF79EF79EF79EF79EF757
:1061A0009EF79EF79EF79EF79EF79EF79EF79EF747
:1061B0009EF79EF79EF79EF79EF79EF79EF79EF737
:1061C0009EF79EF79EF79EF79EF79EF79EF79EF727
:1061D0009EF7BEF7FFFF0000000000000000000077
:1061E00000000000000000000000000000000000AF
:1061F000000000000000000000000000000000009F
:10620000000000000000000000000000000000008E
:10621000000000000000000000000000000000007E
:10622000000000000000000000000000000000006E
:10623000000000000000000000000000000000005E
:10624000000000000000000000000000000000004E
:10625000000000000000000000000000000000003E
:10626000000000000000000000000000000000002E
:10627000000000000000000000000000000000001E
:10628000000000000000000000000000000000000E
:1062900000000000000000000000000000000000FE
:1062A00000000000000000000000000000000000EE
:1062B00000000000000000000000000000000000DE
:1062C00000000000000000000000000000000000CE
:1062D00000000000000000000000000000000000BE
:1062E00000000000000000000000000000000000AE
:1062F000000000000000000000000000000000009E
:106300000000000000000000000000000000FFFF8F
:106310009FF79EF7BEF79EF79EF79EF79EF79EF7B4
:106320009EF79EF79EF79EF79EF79EF79EF79EF7C5
:106330009EF79EF79EF79EF79EF79EF79EF79EF7B5
:106340009EF79EF79EF79EF79EF79EF79EF79EF7A5
:106350009EF79EF79EF79EF79EF79EF79EF79EF795
:106360009EF79EF79EF79EF79EF79EF79EF79EF785
:106370009EF79EF79EF79EF79EF79EF79EF79EF775
:106380009EF79EF79EF79EF79EF79EF79EF79EF765
:106390009EF79EF79EF79EF79EF79EF79EF79EF755
:1063A0009EF79EF79EF79EF79EF79EF79EF79EF745
:1063B0009EF79EF79EF7BEF7FFF700000000000073
:1063C00000000000000000000000000000000000CD
:1063D00000000000000000000000000000000000BD
:1063E00000000000000000000000000000000000AD
:1063F000000000000000000000000000000000009D
:10640000000000000000000000000000000000008C
:10641000000000000000000000000000000000007C
:10642000000000000000000000000000000000006C
:10643000000000000000000000000000000000005C
:10644000000000000000000000000000000000004C
:10645000000000000000000000000000000000003C
:10646000000000000000000000000000000000002C
:10647000000000000000000000000000000000001C
:10648000000000000000000000000000000000000C
:1064900000000000000000000000000000000000FC
:1064A00000000000000000000000000000000000EC
:1064B00000000000000000000000000000000000DC
:1064C00000000000000000000000000000000000CC
:1064D00000000000000000000000000000000000BC
:1064E000000000000000000000009FF7BEF79EF7CC
:1064F0009EF79EF79EF79EF79EF79EF79EF79EF7F4
:106500009EF79EF79EF79EF79EF79EF79EF79EF7E3
:106510009EF79EF79EF79EF79EF79EF79EF79EF7D3
:106520009EF79EF79EF79EF79EF79EF79EF79EF7C3
:106530009EF79EF79EF79EF79EF79EF79EF79EF7B3
:106540009EF79EF79EF79EF79EF79EF79EF79EF7A3
:106550009EF79EF79EF79EF79EF79EF79EF79EF793
:106560009EF79EF79EF79EF79EF79EF79EF79EF783
:106570009EF79EF79EF79EF79EF79EF79EF79EF773
:106580009EF79EF79EF79EF79EF79EF79EF79EF763
:106590009EF79EF79EF79EF79EF7BEF79FF7FFFFC9
:1065A00000000000000000000000000000000000EB
:1065B00000000000000000000000000000000000DB
:1065C00000000000000000000000000000000000CB
:1065D00000000000000000000000000000000000BB
:1065E00000000000000000000000000000000000AB
:1065F000000000000000000000000000000000009B
:10660000000000000000000000000000000000008A
:10661000000000000000000000000000000000007A
:10662000000000000000000000000000000000006A
:10663000000000000000000000000000000000005A
:10664000000000000000000000000000000000004A
:10665000000000000000000000000000000000003A
:10666000000000000000000000000000000000002A
:10667000000000000000000000000000000000001A
:10668000000000000000000000000000000000000A
:1066900000000000000000000000000000000000FA
:1066A00000000000000000000000000000000000EA
:1066B00000000000000000000000000000000000DA
:1066C00000000000FFFFDFF7BEF79EF79EF79EF782
:1066D0009EF79EF79EF79EF79EF79EF79EF79EF712
:1066E0009EF79EF79EF79EF79EF79EF79EF79EF702
:1066F0009EF79EF79EF79EF79EF79EF79EF79EF7F2
:106700009EF79EF79EF79EF79EF79EF79EF79EF7E1
:106710009EF79EF79EF79EF79EF79EF79EF79EF7D1
:106720009EF79EF79EF79EF79EF79EF79EF79EF7C1
:106730009EF79EF79EF79EF79EF79EF79EF79EF7B1
:106740009EF79EF79EF79EF79EF79EF79EF79EF7A1
:106750009EF79EF79EF79EF79EF79EF79EF79EF791
:106760009EF79EF79EF79EF79EF79EF79EF79EF781
:106770009EF79EF79EF79EF79EF79EF79EF79EF771
:10678000BFF7FFFF00000000000000000000000055
:1067900000000000000000000000000000000000F9
:1067A00000000000000000000000000000000000E9
:1067B00000000000000000000000000000000000D9
:1067C00000000000000000000000000000000000C9
:1067D00000000000000000000000000000000000B9
:1067E00000000000000000000000000000000000A9
:1067F0000000000000000000000000000000000099
:106800000000000000000000000000000000000088
:106810000000000000000000000000000000000078
:106820000000000000000000000000000000000068
:106830000000000000000000000000000000000058
:106840000000000000000000000000000000000048
:106850000000000000000000000000000000000038
:106860000000000000000000000000000000000028
:106870000000000000000000000000000000000018
:106880000000000000000000000000000000000008
:1068900000000000000000000000000000000000F8
:1068A000FFFFBEF7BEF79EF79EF79EF79EF79EF797
:1068B0009EF79EF79EF79EF79EF79EF79EF79EF730
:1068C0009EF79EF79EF79EF79EF79EF79EF79EF720
:1068D0009EF79EF79EF79EF79EF79EF79EF79EF710
:1068E0009EF79EF79EF79EF79EF79EF79EF79EF700
:1068F0009EF79EF79EF79EF79EF79EF79EF79EF7F0
:106900009EF79EF79EF79EF79EF79EF79EF79EF7DF
:106910009EF79EF79EF79EF79EF79EF79EF79EF7CF
:106920009EF79EF79EF79EF79EF79EF79EF79EF7BF
:106930009EF79EF79EF79EF79EF79EF79EF79EF7AF
:106940009EF79EF79EF79EF79EF79EF79EF79EF79F
:106950009EF79EF79EF79EF79EF79EF79EF79EF78F
:106960009EF7BEF7BEF79FF7000000000000000092
:106970000000000000000000000000000000000017
:106980000000000000000000000000000000000007
:1069900000000000000000000000000000000000F7
:1069A00000000000000000000000000000000000E7
:1069B00000000000000000000000000000000000D7
:1069C00000000000000000000000000000000000C7
:1069D00000000000000000000000000000000000B7
:1069E00000000000000000000000000000000000A7
:1069F0000000000000000000000000000000000097
:106A00000000000000000000000000000000000086
:106A10000000000000000000000000000000000076
:106A20000000000000000000000000000000000066
:106A30000000000000000000000000000000000056
:106A40000000000000000000000000000000000046
:106A50000000000000000000000000000000000036
:106A60000000000000000000000000000000000026
:106A7000000000000000000000000000FFFF9EF783
:106A80009EF7BEF79EF79EF79EF79EF79EF79EF73E
:106A90009EF79EF79EF79EF79EF79EF79EF79EF74E
:106AA0009EF79EF79EF79EF79EF79EF79EF79EF73E
:106AB0009EF79EF79EF79EF79EF79EF79EF79EF72E
:106AC0009EF79EF79EF79EF79EF79EF79EF79EF71E
:106AD0009EF79EF79EF79EF79EF79EF79EF79EF70E
:106AE0009EF79EF79EF79EF79EF79EF79EF79EF7FE
:106AF0009EF79EF79EF79EF79EF79EF79EF79EF7EE
:106B00009EF79EF79EF79EF79EF79EF79EF79EF7DD
:106B10009EF79EF79EF79EF79EF79EF79EF79EF7CD
:106B20009EF79EF79EF79EF79EF79EF79EF79EF7BD
:106B30009EF79EF79EF79EF79EF79EF79EF79EF7AD
:106B40009EF79EF79EF79EF79EF7BEF700000000A7
:106B50000000000000000000000000000000000035
:106B60000000000000000000000000000000000025
:106B70000000000000000000000000000000000015
:106B80000000000000000000000000000000000005
:106B900000000000000000000000000000000000F5
:106BA00000000000000000000000000000000000E5
:106BB00000000000000000000000000000000000D5
:106BC00000000000000000000000000000000000C5
:106BD00000000000000000000000000000000000B5
:106BE00000000000000000000000000000000000A5
:106BF0000000000000000000000000000000000095
:106C00000000000000000000000000000000000084
:106C10000000000000000000000000000000000074
:106C20000000000000000000000000000000000064
:106C30000000000000000000000000000000000054
:106C40000000000000000000000000000000000044
:106C50000000000000000000FFFFBEF7BEF79EF737
:106C60009EF79EF79EF79EF79EF79EF79EF79EF77C
:106C70009EF79EF79EF79EF79EF79EF79EF79EF76C
:106C80009EF79EF79EF79EF79EF79EF79EF79EF75C
:106C90009EF79EF79EF79EF79EF79EF79EF79EF74C
:106CA0009EF79EF79EF79EF79EF79EF79EF79EF73C
:106CB0009EF79EF79EF79EF79EF79EF79EF79EF72C
:106CC0009EF79EF79EF79EF79EF79EF79EF79EF71C
:106CD0009EF79EF79EF79EF79EF79EF79EF79EF70C
:106CE0009EF79EF79EF79EF79EF79EF79EF79EF7FC
:106CF0009EF79EF79EF79EF79EF79EF79EF79EF7EC
:106D00009EF79EF79EF79EF79EF79EF79EF79EF7DB
:106D10009EF79EF79EF79EF79EF79EF79EF79EF7CB
:106D20009EF79EF79EF79EF79EF79EF79EF7BEF79B
:106D30000000000000000000000000000000000053
:106D40000000000000000000000000000000000043
:106D50000000000000000000000000000000000033
:106D60000000000000000000000000000000000023
:106D70000000000000000000000000000000000013
:106D80000000000000000000000000000000000003
:106D900000000000000000000000000000000000F3
:106DA00000000000000000000000000000000000E3
:106DB00000000000000000000000000000000000D3
:106DC00000000000000000000000000000000000C3
:106DD00000000000000000000000000000000000B3
:106DE00000000000000000000000000000000000A3
:106DF0000000000000000000000000000000000093
:106E00000000000000000000000000000000000082
:106E10000000000000000000000000000000000072
:106E20000000000000000000000000000000000062
:106E300000000000FFFF9EF7BEF79EF79EF79EF74B
:106E40009EF79EF79EF79EF79EF79EF79EF79EF79A
:106E50009EF79EF79EF79EF79EF79EF79EF79EF78A
:106E60009EF79EF79EF79EF79EF79EF79EF79EF77A
:106E70009EF79EF79EF79EF79EF79EF79EF79EF76A
:106E80009EF79EF79EF79EF79EF79EF79EF79EF75A
:106E90009EF79EF79EF79EF79EF79EF79EF79EF74A
:106EA0009EF79EF79EF79EF79EF79EF79EF79EF73A
:106EB0009EF79EF79EF79EF79EF79EF79EF79EF72A
:106EC0009EF79EF79EF79EF79EF79EF79EF79EF71A
:106ED0009EF79EF79EF79EF79EF79EF79EF79EF70A
:106EE0009EF79EF79EF79EF79EF79EF79EF79EF7FA
:106EF0009EF79EF79EF79EF79EF79EF79EF79EF7EA
:106F00009EF79EF79EF79EF79EF79EF79EF79EF7D9
:106F10009EF7BEF700000000000000000000000027
:106F20000000000000000000000000000000000061
:106F30000000000000000000000000000000000051
:106F40000000000000000000000000000000000041
:106F50000000000000000000000000000000000031
:106F60000000000000000000000000000000000021
:106F70000000000000000000000000000000000011
:106F80000000000000000000000000000000000001
:106F900000000000000000000000000000000000F1
:106FA00000000000000000000000000000000000E1
:106FB00000000000000000000000000000000000D1
:106FC00000000000000000000000000000000000C1
:106FD00000000000000000000000000000000000B1
:106FE00000000000000000000000000000000000A1
:106FF0000000000000000000000000000000000091
:107000000000000000000000000000000000000080
:10701000FFFFBFF79EF79EF79EF79EF79EF79EF73E
:107020009EF79EF79EF79EF79EF79EF79EF79EF7B8
:107030009EF79EF79EF79EF79EF79EF79EF79EF7A8
:107040009EF79EF79EF79EF79EF79EF79EF79EF798
:107050009EF79EF79EF79EF79EF79EF79EF79EF788
:107060009EF79EF79EF79EF79EF79EF79EF79EF778
:107070009EF79EF79EF79EF79EF79EF79EF79EF768
:107080009EF79EF79EF79EF79EF79EF79EF79EF758
:107090009EF79EF79EF79EF79EF79EF79EF79EF748
:1070A0009EF79EF79EF79EF79EF79EF79EF79EF738
:1070B0009EF79EF79EF79EF79EF79EF79EF79EF728
:1070C0009EF79EF79EF79EF79EF79EF79EF79EF718
:1070D0009EF79EF79EF79EF79EF79EF79EF79EF708
:1070E0009EF79EF79EF79EF79EF79EF79EF79EF7F8
:1070F0009EF79EF7BEF7FFFF0000000000000000B3
:10710000000000000000000000000000000000007F
:10711000000000000000000000000000000000006F
:10712000000000000000000000000000000000005F
:10713000000000000000000000000000000000004F
:10714000000000000000000000000000000000003F
:10715000000000000000000000000000000000002F
:10716000000000000000000000000000000000001F
:10717000000000000000000000000000000000000F
:1071800000000000000000000000000000000000FF
:1071900000000000000000000000000000000000EF
:1071A00000000000000000000000000000000000DF
:1071B00000000000000000000000000000000000CF
:1071C00000000000000000000000000000000000BF
:1071D00000000000000000000000000000000000AF
:1071E0000000000000000000000000000000BEF7EA
:1071F0009EF79EF79EF79EF79EF79EF79EF79EF7E7
:107200009EF79EF79EF79EF79EF79EF79EF79EF7D6
:107210009EF79EF79EF79EF79EF79EF79EF79EF7C6
:107220009EF79EF79EF79EF79EF79EF79EF79EF7B6
:107230009EF79EF79EF79EF79EF79EF79EF79EF7A6
:107240009EF79EF79EF79EF79EF79EF79EF79EF796
:107250009EF79EF79EF79EF79EF79EF79EF79EF786
:107260009EF79EF79EF79EF79EF79EF79EF79EF776
:107270009EF79EF79EF79EF79EF79EF79EF79EF766
:107280009EF79EF79EF79EF79EF79EF79EF79EF756
:107290009EF79EF79EF79EF79EF79EF79EF79EF746
:1072A0009EF79EF79EF79EF79EF79EF79EF79EF736
:1072B0009EF79EF79EF79EF79EF79EF79EF79EF726
:1072C0009EF79EF79EF79EF79EF79EF79EF79EF716
:1072D0009EF79EF79EF79EF7BEF7FFFF00000000A7
:1072E000000000000000000000000000000000009E
:1072F000000000000000000000000000000000008E
:10730000000000000000000000000000000000007D
:10731000000000000000000000000000000000006D
:10732000000000000000000000000000000000005D
:10733000000000000000000000000000000000004D
:10734000000000000000000000000000000000003D
:10735000000000000000000000000000000000002D
:10736000000000000000000000000000000000001D
:10737000000000000000000000000000000000000D
:1073800000000000000000000000000000000000FD
:1073900000000000000000000000000000000000ED
:1073A00000000000000000000000000000000000DD
:1073B00000000000000000000000000000000000CD
:1073C00000000000000000000000FFFFBEF79EF775
:1073D0009EF79EF79EF79EF79EF79EF79EF79EF705
:1073E0009EF79EF79EF79EF79EF79EF79EF79EF7F5
:1073F0009EF79EF79EF79EF79EF79EF79EF79EF7E5
:107400009EF79EF79EF79EF79EF79EF79EF79EF7D4
:107410009EF79EF79EF79EF79EF79EF79EF79EF7C4
:107420009EF79EF79EF79EF79EF79EF79EF79EF7B4
:107430009EF79EF79EF79EF79EF79EF79EF79EF7A4
:107440009EF79EF79EF79EF79EF79EF79EF79EF794
:107450009EF79EF79EF79EF79EF79EF79EF79EF784
:107460009EF79EF79EF79EF79EF79EF79EF79EF774
:107470009EF79EF79EF79EF79EF79EF79EF79EF764
:107480009EF79EF79EF79EF79EF79EF79EF79EF754
:107490009EF79EF79EF79EF79EF79EF79EF79EF744
:1074A0009EF79EF79EF79EF79EF79EF79EF79EF734
:1074B0009EF79EF79EF79EF79EF79EF79FF70000B8
:1074C00000000000000000000000000000000000BC
:1074D00000000000000000000000000000000000AC
:1074E000000000000000000000000000000000009C
:1074F000000000000000000000000000000000008C
:10750000000000000000000000000000000000007B
:10751000000000000000000000000000000000006B
:10752000000000000000000000000000000000005B
:10753000000000000000000000000000000000004B
:10754000000000000000000000000000000000003B
:10755000000000000000000000000000000000002B
:10756000000000000000000000000000000000001B
:10757000000000000000000000000000000000000B
:1075800000000000000000000000000000000000FB
:1075900000000000000000000000000000000000EB
:1075A000000000000000FFFFBEF79EF79EF79EF769
:1075B0009EF79EF79EF79EF79EF79EF79EF79EF723
:1075C0009EF79EF79EF79EF79EF79EF79EF79EF713
:1075D0009EF79EF79EF79EF79EF79EF79EF79EF703
:1075E0009EF79EF79EF79EF79EF79EF79EF79EF7F3
:1075F0009EF79EF79EF79EF79EF79EF79EF79EF7E3
:107600009EF79EF79EF79EF79EF79EF79EF79EF7D2
:107610009EF79EF79EF79EF79EF79EF79EF79EF7C2
:107620009EF79EF79EF79EF79EF79EF79EF79EF7B2
:107630009EF79EF79EF79EF79EF79EF79EF79EF7A2
:107640009EF79EF79EF79EF79EF79EF79EF79EF792
:107650009EF79EF79EF79EF79EF79EF79EF79EF782
:107660009EF79EF79EF79EF79EF79EF79EF79EF772
:107670009EF79EF79EF79EF79EF79EF79EF79EF762
:107680009EF79EF79EF79EF79EF79EF79EF79EF752
:107690009EF79EF79EF79EF79EF79EF79EF79EF742
:1076A000FFFF0000000000000000000000000000DC
:1076B00000000000000000000000000000000000CA
:1076C00000000000000000000000000000000000BA
:1076D00000000000000000000000000000000000AA
:1076E000000000000000000000000000000000009A
:1076F000000000000000000000000000000000008A
:107700000000000000000000000000000000000079
:107710000000000000000000000000000000000069
:107720000000000000000000000000000000000059
:107730000000000000000000000000000000000049
:107740000000000000000000000000000000000039
:107750000000000000000000000000000000000029
:107760000000000000000000000000000000000019
:107770000000000000000000000000000000000009
:1077800000000000FFF7BEF79EF79EF79EF79EF7FA
:107790009EF79EF79EF79EF79EF79EF79EF79EF741
:1077A0009EF79EF79EF79EF79EF79EF79EF79EF731
:1077B0009EF79EF79EF79EF79EF79EF79EF79EF721
:1077C0009EF79EF79EF79EF79EF79EF79EF79EF711
:1077D0009EF79EF79EF79EF79EF79EF79EF79EF701
:1077E0009EF79EF79EF79EF79EF79EF79EF79EF7F1
:1077F0009EF79EF79EF79EF79EF79EF79EF79EF7E1
:107800009EF79EF79EF79EF79EF79EF79EF79EF7D0
:107810009EF79EF79EF79EF79EF79EF79EF79EF7C0
:107820009EF79EF79EF79EF79EF79EF79EF79EF7B0
:107830009EF79EF79EF79EF79EF79EF79EF79EF7A0
:107840009EF79EF79EF79EF79EF79EF79EF79EF790
:107850009EF79EF79EF79EF79EF79EF79EF79EF780
:107860009EF79EF79EF79EF79EF79EF79EF79EF770
:107870009EF79EF79EF79EF79EF79EF79EF79EF760
:107880009EF7BEF7FFFF00000000000000000000B0
:1078900000000000000000000000000000000000E8
:1078A00000000000000000000000000000000000D8
:1078B00000000000000000000000000000000000C8
:1078C00000000000000000000000000000000000B8
:1078D00000000000000000000000000000000000A8
:1078E0000000000000000000000000000000000098
:1078F0000000000000000000000000000000000088
:107900000000000000000000000000000000000077
:107910000000000000000000000000000000000067
:107920000000000000000000000000000000000057
:107930000000000000000000000000000000000047
:107940000000000000000000000000000000000037
:107950000000000000000000000000000000000027
:10796000FFFF9EF79EF79EF79EF79EF79EF79EF706
:107970009EF79EF79EF79EF79EF79EF79EF79EF75F
:107980009EF79EF79EF79EF79EF79EF79EF79EF74F
:107990009EF79EF79EF79EF79EF79EF79EF79EF73F
:1079A0009EF79EF79EF79EF79EF79EF79EF79EF72F
:1079B0009EF79EF79EF79EF79EF79EF79EF79EF71F
:1079C0009EF79EF79EF79EF79EF79EF79EF79EF70F
:1079D0009EF79EF79EF79EF79EF79EF79EF79EF7FF
:1079E0009EF79EF79EF79EF79EF79EF79EF79EF7EF
:1079F0009EF79EF79EF79EF79EF79EF79EF79EF7DF
:107A00009EF79EF79EF79EF79EF79EF79EF79EF7CE
:107A10009EF79EF79EF79EF79EF79EF79EF79EF7BE
:107A20009EF79EF79EF79EF79EF79EF79EF79EF7AE
:107A30009EF79EF79EF79EF79EF79EF79EF79EF79E
:107A40009EF79EF79EF79EF79EF79EF79EF79EF78E
:107A50009EF79EF79EF79EF79EF79EF79EF79EF77E
:107A60009EF79EF79EF7FFFF000000000000000059
:107A70000000000000000000000000000000000006
:107A800000000000000000000000000000000000F6
:107A900000000000000000000000000000000000E6
:107AA00000000000000000000000000000000000D6
:107AB00000000000000000000000000000000000C6
:107AC00000000000000000000000000000000000B6
:107AD00000000000000000000000000000000000A6
:107AE0000000000000000000000000000000000096
:107AF0000000000000000000000000000000000086
:107B00000000000000000000000000000000000075
:107B10000000000000000000000000000000000065
:107B20000000000000000000000000000000000055
:107B30000000000000000000000000000000FFF74F
