S00F00005A6732385F6C63642E73333728
S3150800000000100020150B0008CF3D0008CF3D000862
S31508000010CF3D0008CF3D0008CF3D0008CF3D000882
S31508000020CF3D0008CF3D0008CF3D0008CF3D000872
S31508000030CF3D0008CF3D0008CF3D0008CF3D000862
S31508000040CF3D0008CF3D0008CF3D0008CF3D000852
S31508000050CF3D0008CF3D0008CF3D0008CF3D000842
S31508000060CF3D0008CF3D0008CF3D0008CF3D000832
S31508000070CF3D0008CF3D0008CF3D0008CF3D000822
S31508000080CF3D0008CF3D0008CF3D0008CF3D000812
S31508000090CF3D0008CF3D0008550F0008CF3D0008AA
S315080000A0CF3D0008CF3D0008CF3D0008CF3D0008F2
S315080000B0CF3D0008CF3D0008CF3D0008CF3D0008E2
S315080000C0CF3D0008CF3D0008CF3D0008CF3D0008D2
S315080000D0CF3D0008CF3D0008CF3D0008CF3D0008C2
S315080000E0CF3D0008CF3D0008CF3D0008CF3D0008B2
S315080000F0CF3D0008CF3D0008CF3D0008CF3D0008A2
S31508000100CF3D0008CF3D0008CF3D0008CF3D000891
S31508000110CF3D0008CF3D0008CF3D0008CF3D000881
S31508000120CF3D0008CF3D0008CF3D0008CF3D000871
S31508000130CF3D0008CF3D0008CF3D0008CF3D000861
S31508000140CF3D0008CF3D0008CF3D0008CF3D000851
S31508000150CF3D0008CF3D0008CF400008CF3D00083E
S31508000160CF3D0008CF3D0008CF3D0008CF3D000831
S31508000170CF3D0008CF3D0008CF3D00080348044B9B
S31508000180834202D0034B03B118477047441000203E
S315080001904410002000000000064B0749C91A8910C0
S315080001A048BF0131491003D0044B0BB10148184729
S315080001B0704700BF441000204410002000000000D3
S315080001C010B5064C237843B9FFF7D8FF044B13B193
S315080001D00448AFF300800123237010BD7612002077
S315080001E0000000000411020808B5054B1BB10549BB
S315080001F00548AFF30080BDE80840FFF7CDBF00BF54
S31508000200000000004410002004110208A3F5803AFB
S31508000210704700BF174B002B08BF134B9D46FFF7CF
S31508000220F5FF00218B460F461348144A121A03F0AD
S3150800023083FF0E4B002B00D098470D4B002B00D0A8
S3150800024098470020002104000D000D48002802D020
S315080002500C48AFF3008003F0E3FC2000290003F00C
S315080002607AFD03F0CBFC00BF000008000000000088
S31508000270000000000010002044100020801200201A
S31508000280000000000000000038B50A4B044633F8A9
S3150800029010300D46CB40DB0704D440F20141064836
S315080002A003F0A9FD302301225C43044BAA401A51EE
S315080002B038BD00BFEE410008A041000840E00350E9
S315080002C038B50A4B044633F810300D46CB40DB07E9
S315080002D004D44FF48661064803F08DFD30230122CD
S315080002E05C43044BAA401A5138BD00BFEE410008D2
S315080002F0A041000840D0035007B502218DF8070039
S315080003000320FFF7C1FF04210220FFF7BDFF074BBB
S31508000310012218680DF1070101F0ACF8042102204A
S31508000320FFF7CEFF03B05DF804FB00BF20100020E6
S3150800033038B504460D4603200221FFF7C1FF042104
S315080003400220FFF7A1FF064B21462A46186801F04E
S3150800035091F8BDE8384004210220FFF7B1BF00BF7D
S31508000360201000202DE9F04FBDB0042201231146CC
S31508000370022002F0DDFC012304220221032002F000
S31508000380D7FC012304220721022002F0D1FC012315
S31508000390142404221946184602F0CAFC0721022032
S315080003A0FFF772FF0A2003F047F907210220FFF73B
S315080003B087FF782003F040F9EF20FFF79DFFEB2039
S315080003C0FFF79AFF012101A88DF80440FFF7B0FF57
S315080003D0FE20FFF791FFEF20FFF78EFFEB20FFF7D8
S315080003E08BFF012102A88DF80840FFF7A1FF8420A2
S315080003F0FFF782FF4023FF260A274FF021084FF018
S31508000400000B012103A88DF80C30FFF791FF85201A
S31508000410FFF772FF012104A88DF81060FFF788FF27
S315080004208620FFF769FF0DEB040001218DF81460A3
S31508000430FFF77EFF8720FFF75FFF012106A88DF8EB
S315080004401860FFF775FF8820FFF756FF012107A8F8
S315080004508DF81C70FFF76CFF8920FFF74DFF01210F
S3150800046008A88DF82080FFF763FF8A20FFF744FF6E
S31508000470012109A88DF824B0FFF75AFF8B20FFF752
S315080004803BFF8023012501210AA88DF82830FFF7B4
S315080004904FFF8C20FFF730FF29460BA88DF82C500C
S315080004A0FFF746FF8D20FFF727FF29460CA88DF892
S315080004B03050FFF73DFF8E20FFF71EFF29460DA897
S315080004C08DF83460FFF734FF8F20FFF715FF2946B4
S315080004D00EA88DF83860FFF72BFFB620FFF70CFF44
S315080004E002211AA8ADF868B0FFF722FF3620FFF7F9
S315080004F003FF182329460FA8B64C8DF83C30FFF7A2
S3150800050017FF3A20FFF7F8FE0523A2464FF0060923
S31508000510294610A88DF84030FFF70AFF9020FFF70C
S31508000520EBFE5AF8040B0421209020A8FFF700FFE1
S31508000530BD20FFF7E1FE294611A88DF84490FFF784
S31508000540F7FEBC20FFF7D8FE294612A88DF848B05A
S31508000550FFF7EEFE30461326FFF7CEFEA2889AF87E
S31508000560023003211EA8ADF878208DF87A30FFF7FF
S31508000570DFFEC320FFF7C0FE294613A88DF84C609E
S31508000580FFF7D6FEC420FFF7B7FE294614A88DF854
S315080005905060FFF7CDFEC920FFF7AEFE22231126D5
S315080005A0294615A88DF85430FFF7C2FEBE20FFF77E
S315080005B0A3FE294616A88DF85860FFF7B9FEE12074
S315080005C0FFF79AFEB4F8073002211BA8ADF86C3085
S315080005D0FFF7AEFEDF20FFF78FFEB4F80920E37AB7
S315080005E003211FA8ADF87C208DF87E30FFF7A0FE0A
S315080005F0F020FFF781FEE068B4F810B04946219074
S3150800060021A8ADF888B0FFF793FEF120FFF774FE36
S31508000610D4F81200B4F816A04946239023A8ADF8DA
S3150800062090A0FFF785FEF220FFF766FEE0684946D0
S31508000630259025A8ADF898B0FFF77AFEF320FFF7C6
S315080006405BFED4F812004946279027A8ADF8A0A06B
S31508000650FFF76EFEED20FFF74FFE238B02211CA845
S31508000660ADF87030FFF764FEAE20FFF745FE77233E
S315080006704FF06309294617A88DF85C30FFF758FE36
S31508000680CD20FFF739FE294618A88DF86090FFF7A8
S315080006904FFE7020FFF730FED4F81A00D4F81E106B
S315080006A02DAB03C394F8222009212DA81A70FFF751
S315080006B03FFEE820FFF720FE3423294619A88DF8C7
S315080006C06430FFF735FE6220FFF716FED4F82300E4
S315080006D0D4F8271036AB03C3D4F82B000C211860C6
S315080006E036A8FFF725FE4846FFF706FED4F82F0082
S315080006F0D4F8331039AB03C3D4F837000C2118608B
S3150800070039A8FFF715FE6420FFF7F6FDD4F83B007D
S31508000710B4F83F2094F841300721299029A8ADF86C
S31508000720A8208DF8AA30FFF703FE6620FFF7E4FD40
S31508000730D4F84200D4F8461030AB03C3B4F84A20C4
S31508000740394630A81A80FFF7F3FD6720FFF7D4FD76
S31508000750E06C216D33AB03C3B4F85420394633A893
S315080007601A80FFF7E5FD7420FFF7C6FDD4F856009A
S31508000770B4F85A2094F85C3007212B902BA8ADF8D2
S31508000780B0208DF8B230FFF7D3FD9820FFF7B4FDFF
S31508000790B4F85D3002211DA8ADF87430FFF7C8FD26
S315080007A03520FFF7A9FD4046FFF7A6FD3046FFF7BF
S315080007B0A3FD782002F040FF2920FFF79DFD322097
S315080007C002F03AFF29462846FFF77AFD3DB0BDE814
S315080007D0F08F00BFF641000838B50A4B044633F8D7
S315080007E010300D46CB40DB0704D44FF4866106482B
S315080007F003F001FB302301225C43044BAA401A5143
S3150800080038BD00BF5C420008A041000840D0035034
S315080008102DE9F74F134E02EB420406EB8416074602
S315080008208846994600244FF0004B002508EB040A39
S3150800083056F824301FFA8AFA2BFA05F21A4207D01C
S3150800084078194A46514680B2019303F036FA019B5D
S315080008500135202DF0D10134302CE6D103B0BDE8A6
S31508000860F08F00BFB40402082DE9F84FF0270646BA
S315080008700C464F4303EB01080E4B02441FFA88F857
S3150800088003EB400A1FFA82F9444511D035460AEBB4
S31508000890470B07E0284621463BF8022B03F00DFAE2
S315080008A00135ADB24D45F5D10134F037A4B2EBE7C9
S315080008B0BDE8F88FB44200082DE9F04F87B0012152
S315080008C03A2001F0E9F8002304220221032002F06D
S315080008D02FFA02210320FFF77FFF00F007FB00F045
S315080008E001F903F032FAFFF73DFD384B002100937A
S315080008F0F02308461A4603F0FFF94FF02D09DFF8F2
S31508000900D4B01BF8014B34B90221032007B0BDE867
S31508000910F04FFFF761BF552C4CD84D2C05D8392C14
S3150800092046D82F2C46D92F3C09E04E3C072C41D8F7
S31508000930DFE804F043474040404045040D24244B7B
S3150800094004EB84041C441FFA89F31D462D26002750
S3150800095014F8012B0292029A3A41D2071BD54FF09E
S31508000960000806F1030A1FFA8AFA314605EB080061
S3150800097080B20022CDE90301059303F09EF904999C
S315080009800398013189B25145059BF2D108F1010856
S31508000990B8F1050FE9D101370336072FB6B2DAD118
S315080009A0053503F11902ADB292B29542CED101E0F6
S315080009B0432C08D009F11E09A3E70E24BFE70F242C
S315080009C0BDE70C24BBE70B24B9E700BFB442000817
S315080009D0644200085542000870B50026154D0A24E1
S315080009E03C23502296215F20FFF73EFF2B78B3FB6E
S315080009F0F4F204FB1234092BE4B24FF0000315D9C4
S31508000A0096215F20FFF704FF0023224696218720C0
S31508000A10FFF7FEFE4FF47A7002F00EFE2B780133D4
S31508000A20DBB2142B2B70DAD92E70D8E72246962122
S31508000A307320EDE77712002010B5274C01F0E0FA95
S31508000A4001F012FD236F23F0070343F00303236726
S31508000A5003F0B5FA214B00209B6ADB015EBF4FF419
S31508000A6080321F4B9A62D4F8203123F0070343F0F3
S31508000A700203C4F82031D4F8283123F0070343F0E1
S31508000A800203C4F82831D4F8403123F0030343F0B5
S31508000A900203C4F84031D4F8603123F0030343F06D
S31508000AA00203C4F86031D4F8403223F0030343F05C
S31508000AB00203C4F84032D4F8003223F0070343F0A7
S31508000AC00203C4F80032D4F8083223F0070343F0CF
S31508000AD00203C4F8083210BD008000500040005AD6
S31508000AE00060005A024B0349186800F00BBB00BFB0
S31508000AF020100020001000200348044A0449121A56
S31508000B00921003F065B900BF5C1102085C11020877
S31508000B108012002008B500F02FF8FFF7EDFF124B02
S31508000B2012498B4212D30020114B12498B4218D31B
S31508000B30FFF770FB186850F82240586840F82240C2
S31508000B40013298688242F5D30C33EAE70022F8E7C7
S31508000B501C6844F8220001325C68A242F8D30833C4
S31508000B60E4E70022F8E700BF0C1102081811020892
S31508000B70181102081811020810B54FF480414FF0F9
S31508000B80FF30114B114A9A60D3F8882042F470025C
S31508000B90C3F888200E4A91660E4901F50052106680
S31508000BA00D4850660220C3F8D000BFF34F8FBFF33D
S31508000BB06F8F01244FF440330848C0F88041D36052
S31508000BC004600B6110BD00BF00ED00E000000008E6
S31508000BD000900050008000447FFF7F0300E100E0A2
S31508000BE0014B1868704700BF28100020084B1B6F80
S31508000BF003F00703022B04D0032B05D0012B05D0E5
S31508000C00FEE7044B18687047034BFBE70348704739
S31508000C10008000502810002030100020002D3101DF
S31508000C2008B5FFF7E3FF054B1B6FC3F30333013327
S31508000C30B0FBF3F0024B186008BD00BF00800050FF
S31508000C40241000200048704700B4C404014B1868FB
S31508000C50704700BF30100020054B1860054B1B6F0E
S31508000C6003F00703032B01D1FFF7DABF704700BF74
S31508000C70301000200080005000487047002D3101D8
S31508000C804FF0B4439868C0F304400C280AD8DFE84C
S31508000C9000F00B0909090909072119091B1D1F007D
S31508000CA00F487047002070479B6803F04073B3F104
S31508000CB0807F11D0B3F1007F10D00A4A002B08BFFD
S31508000CC010467047084870470848704708487047F4
S31508000CD008487047084870470848704708487047EA
S31508000CE0405DC60000093D00C0EA210180BA8C01BA
S31508000CF00048E801005A62020024F40080841E00BD
S31508000D0040420F00014B1868704700BF2C100020A6
S31508000D102DE9F04F85B09A46554B06461B780F4687
S31508000D201546DDF83C909DF844B0DDF85080002B60
S31508000D3000F09780072A00F296800E9B002B00F0A1
S31508000D409280B9F1000F00F08E80129BB3F5006F08
S31508000D5000F38980012803D1109B002B00F08380C3
S31508000D60444B03EB05131B7B002B7ED0424C102211
S31508000D700021684603F0E0F904EB45141022A7BBEE
S31508000D803946204603F0D8F943F210036380BBF1D5
S31508000D90000F03D1E37843F00303E370364A0E9B52
S31508000DA002EB451CCCE90193129B6901581E9DF87C
S31508000DB04C30C0F30A0003F003039B0643EA001E07
S31508000DC053582E48012E00EA03004EEA0003CDF8D8
S31508000DD000A0535017D0B8F1000F2ED19CF802305E
S31508000DE068F304138CF8023027E00021204603F04C
S31508000DF0A3F94FF444736380BBF1000FCED1E378B7
S31508000E0043F03003C9E713230CF1100ECCF80C306D
S31508000E109CE80F008EE80F006FF00301DCF81C2039
S31508000E20109B61F39F02012FCCF81C20CCF81430DC
S31508000E3003D1CCF81890CCF8043000270D4A2901C4
S31508000E4002EB051342F80180159A28465A6069464E
S31508000E5022469F605E7301F0FFFF384605B0BDE885
S31508000E60F08F0748FAE70748F8E70748F6E700BFAC
S31508000E7078120020E0110020E01000200F80FFF318
S31508000E80028000F0018000F0078000F038B5124BB0
S31508000E9005461B78DBB1E0B103F0ADF80F4A002335
S31508000EA01146147B54B92B6001251A0101EB031373
S31508000EB01D738C5003F0A5F8204638BD0133082B66
S31508000EC002F11002EDD103F09CF80548F5E7054854
S31508000ED0F3E70548F1E700BF78120020E01100208B
S31508000EE0048000F0028000F0018000F013B5154B75
S31508000EF01868002301908DF8043003F07CF8124B33
S31508000F001C7824B103F07DF8104802B010BD012208
S31508000F101A7003F076F80E4B01A81C731C7783F839
S31508000F202C4083F83C4083F84C4083F85C4083F8B7
S31508000F306C4083F87C4008238DF8073001F042FFA7
S31508000F402046E2E7F40C020878120020038000F03D
S31508000F50E01100202DE9F041174B1F6D5B6D1F4016
S31508000F6000D5FEE701260025144CDFF858803742E5
S31508000F7018D02368C8F85060A3B1A1682846013183
S31508000F806268A1609847637B012B0BD150B90C4B63
S31508000F9003EB45131A7B60F341021A731A7F60F359
S31508000FA041021A770135082D4FEA460604F1100466
S31508000FB0DDD1BDE8F08100BF00000450E01100203B
S31508000FC0E01000200020045038B5144603F013F84A
S31508000FD00023A36484F84C302364237F0546012B41
S31508000FE003D104F1600002F0C7FA636B1BB100215C
S31508000FF02046E26B9847284603F003F8A36D002BBA
S3150800100003DCBB21034802F0F6FEA36D0120013B79
S31508001010A36538BDF80C02082DE9F04387B01646DB
S315080010200022436390F85C300446884680F85420D2
S31508001030C663002B37D14FF4406305686B6143697B
S31508001040092B03D905F12C03443506E00BBF05F13E
S31508001050200305F1240338353C3567694FF000094C
S31508001060082F94BF00270127A26D0132A265124AF4
S315080010700494CDE902720196CDF80090216B04F133
S315080010803802A06A02F0D3FE0123CDE90399CDE91F
S31508001090016700932A464346E16A606A02F0ADFE9C
S315080010A007B0BDE8F083012BFAD1006802F048FFCB
S315080010B0256805F13C03C7E7C90F000838B505469A
S315080010C0B0B1B9B1B2B1B2F5006F13DC02F093FF5B
S315080010D095F84C3003F0FF041BB102F092FF064866
S315080010E038BD012385F84C3002F08BFF2046F7E720
S315080010F00248F5E70248F3E7032000F0012000F074
S31508001100022000F0F0B58FB0734A0B68054693428B
S315080011100C4606AF07D0714A934204D002F58042C6
S31508001120934240F0F180BC466D4E05970FCEACE871
S315080011300F0096E80F0010368CE80F000FCE0DF161
S31508001140040CACE80F00002D00F0878100268422ED
S315080011500021284602F0F0FF23685F4AAE659342F5
S315080011600BD05E4A934200F09E8002F5804293427D
S3150800117000F09F805B480FB0F0BD56204FF48012F8
S3150800118059492B600123A44685F85C302F1DC5E913
S315080011900B122865BCE80F000FC79CE80F0087E80C
S315080011A00F00637E012B08BF8DF81D30A37E3BB16F
S315080011B0012B00F08480022B02D0032BDAD1062300
S315080011C0227E8DF81230012AE3687AD1474A934283
S315080011D08CBF04230523059A537700238DF8113015
S315080011E0434B01213A20039300F056FC0121286D58
S315080011F000F052FC2369DA1F092ABBD8063B8DF892
S315080012001030237E2BB9E37EB3FA83F35B098DF89E
S315080012101C300121284602F029FE0028ABD1237A8A
S315080012202079344A40EA034002EB4611C1F8DC044F
S31508001230677A6079730140EA0740C1F8D404A77A4F
S31508001240A07940EA0740C1F8D804E17E00293CD1DC
S31508001250E17AE27903F1A04342EA014203F57033E9
S31508001260C3F8C8241D22C3F8C424206801A901F0C4
S3150800127003FC02F0C0FE204B1A78002A40F0E280F8
S3150800128001221A7002F0BDFE02F03CF9FFF72EFEAD
S31508001290002105F12400FFF7F9FD0146002800F0BA
S315080012A0D480164867E757204FF488120126144958
S315080012B067E758204FF490120226124961E7042383
S315080012C07EE700228DF834208BE71C23263602EBB6
S315080012D046125360C9E700BF0000015B00000A50D0
S315080012E04C0D0208022000F0010010003F4B4C0094
S315080012F040420F0000C0035079120020092000F078
S3150800130001001100010012003E46DFF864C1BCE886
S315080013100F000FC69CE8070086E80700002D00F0BE
S315080013209C8084220021284602F006FF00232268BA
S315080013304B49AB658A427FF41DAF292129654FF4D5
S315080013408021A446474E85F85C30C5E90B612E1D01
S315080013502A60BCE80F000FC69CE80F0086E80F005D
S31508001360637E012B08BF8DF82630A37E43B1012B7F
S3150800137058D0022B59D0032B7FF4FCAE4FF44073A0
S31508001380ADF82830237E0121012B03BF00238DF8F9
S3150800139025304FF4E133E3683A20089300F07CFBEC
S315080013A00121286D00F078FB23691A1F0C2A3FF6E5
S315080013B0E1AE033B394620688DF8243001F01AFE69
S315080013C0A36923F47F0323F47F432BB94FF48032B8
S315080013D02B6803F580539A60237A2079617940EA6D
S315080013E00340637AA27941EA0341E67EA37A42EA98
S315080013F003421D4BE6B91D26C3F89867C3F8B00724
S31508001400C3F8A817C3F8AC27E17AE27942EA0142A1
S31508001410C3F89C270121284602F028FD00287FF4FE
S31508001420AAAE26E74FF40073AAE74FF48073A7E73E
S315080014301C24C3F89847C3F8B007C3F8A817C3F81D
S31508001440AC27E7E702F0DDFD20E705F12800FFF706
S315080014501DFD00283FF48FAE23E704488BE600BF46
S3150800146000C005500200040000C00350012000F02F
S31508001470800D020870B5037F0446012B0D461646FB
S315080014800DD0FFF71BFE48B9324629462046054BC4
S31508001490FFF7C2FD204602F05EFDA06C70BD024853
S315080014A0FCE700BF633E0008082000F0044BD3F8B1
S315080014B08420D206FBD4D3F88400C0F38110704789
S315080014C00040005038B5124B0546D3F880300C461C
S315080014D003F00303022B0BD0032B0DD0012B0FD1E6
S315080014E0FFF784FB0D2305B1286004B1236038BDDE
S315080014F0FFF7C6FB0723F6E7FFF772FB0623F2E7BB
S31508001500044841F2DF1102F076FC00231846EAE7A8
S31508001510008000509C0D020838B51A4B0546D3F8D2
S3150800152020010C4600F00700062821D8DFE800F065
S3150800153028040C1410181C00FFF752FB052305B1EC
S31508001540286004B1236038BDFFF780FB0323F6E764
S31508001550FFF796FB0723F2E7FFF78EFB0223EEE77A
S31508001560FFF73EFB0623EAE7FFF770FB0423E6E7EF
S31508001570054841F25C2102F03EFC00231846DEE7EE
S315080015800123DCE7008000509C0D020838B5194B92
S315080015900546D3F828310C4603F00703013B052B13
S315080015A020D8DFE803F003131B0F0B17FFF718FB10
S315080015B0052305B1286004B1236038BDFFF710FB89
S315080015C00623F6E7FFF75CFB0723F2E7FFF73EFB88
S315080015D00323EEE7FFF73AFB0423EAE7FFF74CFBA2
S315080015E00223E6E7044841F2640102F004FC002302
S315080015F01846DEE7008000509C0D0208F7B5002764
S31508001600144B0197D3F88041064604F00304022CD4
S315080016100D4614D0032C0DD0012C14D1394601A83F
S31508001620FFF77AFF0F240EB1019B336005B12C60DA
S3150800163003B0F0BDFFF724FB07240190F3E7FFF79B
S315080016401BFB0190EFE741F2B131034802F0D3FBEF
S315080016503C46E8E7008000509C0D020838B50F4B61
S315080016600546D3F890320C4603F00303012B09D044
S31508001670022B0BD1FFF704FB072305B1286004B141
S31508001680236038BDFFF7F8FA0223F6E7044841F26B
S31508001690501102F0B0FB00231846EEE70080005018
S315080016A09C0D020837B500230193194B0546D3F85C
S315080016B020320C4603F00703042B1FD8DFE803F09B
S315080016C025030F141900002101A8FFF75FFF112356
S315080016D00DB1019A2A6004B1236003B030BDFFF74B
S315080016E0CFFA07230190F3E702F07FFB0A23019064
S315080016F0EEE7FFF707FB09230190E9E741F223012B
S31508001700044802F078FB0023E2E70123E0E700BF84
S31508001710008000509C0D020838B5104B0546D3F8DA
S3150800172040310C4603F00303022B0BD0032B0DD0DC
S31508001730012B0FD102F059FB0A2305B1286004B129
S31508001740236038BDFFF7DEFA0923F6E702F050FBFF
S315080017500B23F2E701230020EFE700BF00800050CB
S3150800176037B500230193184B0546D3F860320C466B
S3150800177003F00703013B032B1FD8DFE803F0020E33
S315080017801914002101A8FFF7C7FE0F230DB1019A0E
S315080017902A6004B1236003B030BD002101A8FFF719
S315080017A0BBFF1023F2E7FFF76BFA07230190EDE77B
S315080017B0FFF762FA02230190E8E741F2C8010348FD
S315080017C002F019FB0023E1E7008000509C0D020897
S315080017D073B500240F4B0194D3F87032064603F014
S315080017E00303012B0D4607D0022B11D041F2261117
S315080017F0094802F000FB04E0214601A8FFF78CFF28
S3150800180010240EB1019B336005B12C6002B070BD87
S315080018101424F6E7008000509C0D020838B5164BD4
S315080018200546D3F800020C4600F00700042819D82C
S31508001830DFE800F020030B0F130002F0D6FA0A23A4
S3150800184005B1286004B1236038BDFFF75BFA0923A8
S31508001850F6E702F0CDFA0B23F2E7FFF7E1F90E23DC
S31508001860800AEDE7054841F26F4102F0C4FA002309
S315080018701846E5E70123E3E7008000509C0D0208BF
S3150800188038B5164B0546D3F808020C4600F0070093
S31508001890042819D8DFE800F020030B0F130002F024
S315080018A0A4FA0A2305B1286004B1236038BDFFF7FE
S315080018B029FA0923F6E702F09BFA0B23F2E7FFF76A
S315080018C0AFF90E23800AEDE7054841F2A74102F079
S315080018D092FA00231846E5E70123E3E70080005063
S315080018E09C0D020838B5104B0546D3F840320C4615
S315080018F003F00303022B0BD0032B0DD0012B0FD1C2
S3150800190002F073FA0A2305B1286004B1236038BDD2
S31508001910FFF7F8F90923F6E702F06AFA0B23F2E76C
S3150800192001230020EFE700BF0080005038B5124BB6
S315080019300546D3F850320C4603F00303022B0FD0AA
S31508001940032B05D0012B0FD102F04FFA0A2302E030
S3150800195002F04EFA0B2305B1286004B1236038BDA6
S31508001960FFF7D0F90923F6E7044841F2940102F09B
S3150800197042FA00231846EEE7008000509C0D020844
S3150800198038B5104B0546D3F860310C4603F003030F
S31508001990022B0BD0032B0DD0012B0FD102F025FA09
S315080019A00A2305B1286004B1236038BDFFF7AAF9F8
S315080019B00923F6E702F01CFA0B23F2E701230020BD
S315080019C0EFE700BF0080005010B5B0F5207F2ED09D
S315080019D009D8B0F5007F24D003D868B1B0F5C07F28
S315080019E00AD000241BE0B0F5607FFAD1124BD3F879
S315080019F08040C4F3011412E00F4B1C6F230B13F045
S31508001A000E0FC4F303340AD0072C08D00F2C06D0C7
S31508001A10032C04D040F28521084802F0ECF9601C3A
S31508001A2010BD054BD3F89040C4F30464F7E7024BA6
S31508001A301C6FC4F38024F2E7008000509C0D020856
S31508001A4038B54FF48032104B04469A6600200D468E
S31508001A50FFF7BAFF41F671320C4B6043DC69DA6373
S31508001A605A6804F4803422F440125DB90849884261
S31508001A7094BF00200120000502435A600CB10022E1
S31508001A80DA6338BD0349F2E70090005000000350BE
S31508001A90005A6202002D310138B5430904460D4645
S31508001AA00ED140F22F310D4802F0A5F9002304F0BB
S31508001AB01F0485B103F580530122A2401A6038BD80
S31508001AC0012B04D0022B04D040F23D31EBE7044B46
S31508001AD0EDE7044BEBE703F50053EDE79C0D020831
S31508001AE0648000506880005030B585B00021B0F59C
S31508001AF0807F0446CDE9001100F006816BD80028E6
S31508001B0000F0DB80A0F12004602C75D8602C73D817
S31508001B10DFE814F0D300E000D300E000F000F000A6
S31508001B20F000F000F000E000F5007E000B019E00DA
S31508001B307E00E000E000E0007200720072007200B1
S31508001B407200720072000B01E000E000E000230161
S31508001B501001E000720072007200720072007200DA
S31508001B607200720072007200720072001501F000B5
S31508001B70D300D300D300B1007E007E00B9001A015D
S31508001B809300C800C8007200720072007200D30089
S31508001B9072007200720072007200720072007200A7
S31508001BA07200720072007200720072007200720097
S31508001BB07200720072007200720072007200720087
S31508001BC07200720072007200720072007200720077
S31508001BD072007200CD00B0F5E06F00F0AB803CD823
S31508001BE0B0F5607F00F081801DD8B0F5007F67D022
S31508001BF008D8B0F5C07F60D040F29441594802F049
S31508001C00FAF857E0B0F5207F64D0B0F5407FF3D1FD
S31508001C10FFF706F804464FF42070FFF7D5FEB4FB2D
S31508001C20F0F464085FE0B0F5B06F68D00AD8B0F594
S31508001C30806F5FD0B0F5A06FDED100216846FFF750
S31508001C4031FD37E0B0F5C06F6FD0B0F5D06FD3D1A6
S31508001C5000216846FFF7E2FD2CE0B0F5286F73D047
S31508001C6016D8B0F5186F6AD00AD8B0F5F06F74D0E8
S31508001C70B0F5106FC0D100216846FFF701FE19E0E4
S31508001C80B0F5206FB8D100216846FFF769FD11E06D
S31508001C90B0F5306F5DD0AFD3B0F5386F45D0B0F53D
S31508001CA0406FA9D100216846FFF770FC02E0FEF7F5
S31508001CB09DFF0090009805B030BDFEF7B1FFF8E72C
S31508001CC0FEF794FF05462046FFF77EFEB5FBF0F5C6
S31508001CD00095EFE7FEF7A4FF04464FF42070FFF7E0
S31508001CE073FEB4FBF0F40094E4E701A8FFF7EAFBFF
S31508001CF0019DE8E700216846FFF70EFCDAE70021B8
S31508001D006846FFF77BFCD5E74FF0E02302911B6995
S31508001D105B0705D5FEF784FF0290029B0093C9E78F
S31508001D2003A902A8FFF7F8FCF7E700216846FFF7C2
S31508001D30F3FCBFE700216846FFF7D4FDBAE70021A8
S31508001D406846FFF7F3FDB5E700216846FFF740FD53
S31508001D50B0E76846FFF782FCACE700216846FFF764
S31508001D600FFEA7E79C0D020808B58020FFF7BCFE0A
S31508001D70034B98429EBF4FF48032024B1A6708BD48
S31508001D80005A620200A000501FB503460020B3F5B2
S31508001D90607F019000F00E817BD8582B68D8382BCD
S31508001DA005D8243B092B49D940F27951CEE0393B75
S31508001DB01F2BF9D801A252F823F000BF6F1F0008A5
S31508001DC0A91D0008A91D0008A91D0008791F0008FB
S31508001DD0C71F0008A91D0008A91D0008A91D00089D
S31508001DE0A91D0008A91D0008A91D0008A91D0008AD
S31508001DF0A91D0008A91D0008A91D0008A91D00089D
S31508001E00A91D0008A91D0008D11F0008B91E000851
S31508001E10A91D0008A91D0008A91D0008FD1E000827
S31508001E20A91D0008A91D0008DB1F0008E51F0008FA
S31508001E30BD1F00081F1F00081F1F0008092BB3D865
S31508001E4001A252F823F000BFB91E0008B91E000807
S31508001E50B91E0008B91E0008B91E0008A91D000809
S31508001E60551F0008A91D00086F1F0008D71E000887
S31508001E70802B59D0B3F5807F96D14FF0E02302909E
S31508001E801B695B076ED5FEF7CBFE0C230393039BFA
S31508001E9056E0B3F5086F74D022D8B3F5C06F66D094
S31508001EA00FD8B3F5A06F00F08980B3F5B06F51D0A5
S31508001EB0B3F5806F7FF478AF002001A9FFF72CFBFC
S31508001EC04CE0B3F5E06F7ED0B3F5F06F54D0B3F5C0
S31508001ED0D06F7FF469AF002001A9FFF79FFC3DE0B2
S31508001EE0B3F5286F7ED00ED8B3F5186F70D0B3F55A
S31508001EF0206F72D0B3F5106F7FF456AF002001A99A
S31508001F00FFF7BEFC2AE0B3F5306F70D0FFF44CAF94
S31508001F10B3F5386F2BD0B3F5406F7FF445AF00208B
S31508001F2001A9FFF733FB19E0334B1B6F03F00703D7
S31508001F30013B032B08D8DFE803F0050231390523F6
S31508001F4001930BE00223FBE740F2C6412B4801F060
S31508001F5052FF03E0002001A9FFF750FB019805B0E6
S31508001F605DF804FB03A902A8FFF7D6FB8FE700205C
S31508001F7001A9FFF7D1FBF1E7002001A9FFF700FD52
S31508001F80ECE71D4BD3F8003103F00303022B07D00F
S31508001F90032B09D0012B0BD1FEF758FE0323CFE7FD
S31508001FA0FEF7B0FE0923CBE701F01DFF0823C7E7BC
S31508001FB00123C5E701A9FFF785FACFE7002001A9A4
S31508001FC0FFF770FBCAE7002001A9FFF78BFCC5E7FE
S31508001FD0002001A9FFF7AAFCC0E7002001A9FFF726
S31508001FE0BFFBBBE7002001A9FFF7F2FBB6E701A993
S31508001FF0FFF734FBB2E700BF008000509C0D0208D3
S315080020004FF48012034B5A664FF48032024B9A62A1
S31508002010704700BF009000500050005AF8B503689A
S3150800202004460F2B04D940F66D31804801F0E3FED3
S3150800203063680F2B04D94FF437617C4801F0DBFE47
S31508002040A3680F2B04D940F67331784801F0D3FE04
S31508002050237B0F2B04D940F67631744801F0CBFE6A
S31508002060637B0F2B04D940F67931704801F0C3FE23
S31508002070A37B3F2B04D940F67C316C4801F0BBFEAC
S31508002080E37B3F2B04D940F67F31684801F0B3FE65
S315080020902369032B04D940F68231644801F0ABFE6C
S315080020A06369032B04D940F68531604801F0A3FE25
S315080020B0E369032B04D940F688315C4801F09BFE9E
S315080020C08020FFF761FE032800F08A804FF4801213
S315080020D0574B584D5A6645F60E034FF0A062C5F8A1
S315080020E08030554B9A624FF4803203F580539A62DA
S315080020F0AB6DDA03FCD4AE6D16F08046FBD1D4E99D
S3150800210000231B0543EA0263E27B4C481343227B08
S315080021104B4F43EA0243627B43EA0233A27B43EA1C
S3150800212082132B61AA69D4E904131B0643EA816367
S3150800213002F000421343A27E4FF440611343227E0D
S3150800214043EA0243627E43EA0223AB614FF400622C
S3150800215001F013FF2B6AE17EE26923F00F0343EADD
S315080021608103002A3DD12B6294F8243094F820107C
S31508002170AA6ADB0043EA41133A40134394F8212044
S31508002180304943EA021343F480332A4AAB62936D1B
S3150800219031EA0303FBD14FF0807127488162136946
S315080021A0A56823F4700343EA055313614FF000430F
S315080021B0836194F822300BB9234B996294F8233043
S315080021C03BB94FF48032204B9A621A4A936D5B00F2
S315080021D0FCD494F825301BB1164B1C4AC3F8802052
S315080021E0F8BD134343F00803022A2B6208D12E6177
S315080021F04FF408524FF47F411548AE6101F0BDFE19
S315080022000C4994F822308A6A94F820001B063A4052
S3150800221043EA4013134394F8242043EAC20394F88C
S31508002220232043EA02438B62D3E700BF9C0D0208D2
S31508002230009000500040005A0050005A3840005A9A
S31508002240C7FFFEFE030001000060005AF1A7FFFF6A
S315080022503440005A014B93F90000704738100020AB
S3150800226010B543680446072B04D940F6B3512A48EB
S3150800227001F0C1FDA368032B04D940F6B5512648E1
S3150800228001F0B9FD2378032B04D940F6B75122484B
S3150800229001F0B1FD94F90130002B04DA40F6B9518A
S315080022A01D4801F0A8FD4FF400011C4A63785166E9
S315080022B04FF4D151022002F5B832516218494F2B1A
S315080022C048604FF0010028BF4F2301F58051486050
S315080022D01169C903FCD4217843EA01235361D4E97F
S315080022E001131B0143EA0123617B0B43217B43EA6C
S315080022F041039360E37BA17B1B0143EA4113617CA5
S315080023000B43217C43EA41035360A37C13B16FF46A
S31508002310D153536210BD00BF9C0D020800900050B7
S3150800232000100250014B1880704700BF361000207D
S31508002330014B1880704700BF3410002038B5B0F53F
S31508002340207F77D00ED8B0F5007F61D003D890B340
S31508002350B0F5C07F2FD040F21231BDE838403D4875
S3150800236001F049BDB0F5607FF5D13B4A4C1ED2F865
S31508002370FC5015F080751EBFD2F8FC3023F0807330
S31508002380C2F8FC30032C04D940F2F221314801F09E
S3150800239032FD324AD2F8803023F0300343EA041380
S315080023A0C2F8803035B12C4AD2F8FC3043F080733D
S315080023B0C2F8FC3038BD4C1E012C0AD9102903D8A6
S315080023C0274BCB40DB0704D440F2C721214801F054
S315080023D012FD01F0E1FD01F0EDFD4FF48031214BD6
S315080023E01E4A1967136F23F4704343EA04331367CD
S315080023F0FEF716FC0446FFF759F8C0F1020120461D
S3150800240001F0D2FD00F040F8BDE83840FFF7ACBC5B
S315080024104C1E1F2C04D940F206310E4801F0EBFC85
S315080024200E4AD2F8903023F0F85343EA0463C2F810
S315080024309030BFE74C1E012C04D94FF44371054870
S3150800244001F0D9FC054A136F23F4806343EA842319
S315080024501367AFE79C0D020800ED00E0008000500E
S31508002460100101000090005008B50121022000F07B
S3150800247091F801F091FD01F09DFD4FF48032014B7A
S315080024801A6708BD0090005008B54FF4C070FFF7F2
S315080024902BFBBDE808400449884294BF012102216C
S315080024A04FF42070FFF74ABF80F0FA020028ABBF4E
S315080024B000F16040054B00F5614000F00F00ACBF2D
S315080024C090F80003185C0009704700BF14ED00E09F
S315080024D010B5C3B24E2B044604D94FF44D710748C4
S315080024E001F089FC064B620953F8220004F01F0428
S315080024F0E040C04300F0010010BD00BFE70D020830
S3150800250000E100E010B500F10C03DBB25A2B0446DB
S3150800251004D940F2C221144801F06DFCEFF3108390
S31508002520DB0702D50122104610BD2046FFF7D0FF73
S3150800253002460028F6D12046FFF7B8FF0146EFF31A
S31508002540118313B1B0EB131FECD2084B5B68C3F3CE
S315080025500803002BE7D0103B58B2FFF7A7FF8842C5
S315080025608CBF00220122DEE7E70D020800ED00E03D
S31508002570024A536B0342FCD1704700BF0040095022
S31508002580034A0179D36E23F030030B43D3667047B1
S3150800259000400050F8B50446244BD3F88420D006F2
S315080025A0FBD4D3F88430C3F381139C423CD0FEF7A6
S315080025B01DFB012C05460BD11D4B984204D940F250
S315080025C092711C4801F017FC0121284601F0ECFC29
S315080025D001F00AFD4FF00072174B07465A6620466F
S315080025E001F012FD4FF48063104E621E934033676C
S315080025F0736E9A0103D4D6F884309B060AD53846FA
S3150800260001F0F6FC022C0FD12846BDE8F84000215F
S3150800261001F0CABCD6F884309906E9D54FF4F461BE
S31508002620044801F0E8FBE3E7F8BD00BF00400050AE
S31508002630005A6202330E02080060005010B50C46BC
S3150800264008B9FEF7D3FA074B21461B783BB1064B70
S31508002650984204D80120BDE81040FFF79BBF02202E
S31508002660F9E700BF7A120020005A620238B54FF027
S315080026700042244B244C5A664AF6CD33656C014613
S3150800268005F00105236428BB0120FFF771FF636885
S31508002690DB0715D51D4B586008461D4B226BD20724
S315080026A00CD4984208D1072415B1174B194A1A6455
S315080026B001F0ABFC204638BD0130EFE79842F2D076
S315080026C00024F1E70132236B13F0080305D08A4290
S315080026D0F8D1E8E700220E49F5E78A42E3D020213F
S315080026E00A4A91620121A2F5805251600649084AB8
S315080026F0886A800603D49342D5D00133F8E793421B
S31508002700DDE700BF00900050004009500060095006
S3150800271040420F003254FFFF38B54FF00042164BC7
S3150800272001465A664AF6CD33144C154A656C23643D
S3150800273043780B205B0043F00103D363FFF718FFD0
S3150800274063688A7823F4F87343EA02136360CA78E5
S315080027504B7943EA0223A3600A798B7943EA022379
S3150800276023610878FFF782FFEB0744BF054B236414
S3150800277001F04BFC012038BD009000500040095084
S31508002780004000503254FFFF70B50F28044605D9A3
S3150800279040F63961124801F02EFB0F244FF0004233
S315080027A0104B11495D6E03F580535A664AF6CD33D0
S315080027B04E6C80200B64FFF7DBFE0B6A23F00F03D9
S315080027C023430B62F30744BF084B0B64002DA2BFDB
S315080027D04FF00042064B5A6601F017FC70BD00BF69
S315080027E0330E020800800050004009503254FFFFA3
S315080027F000A0005010B501F00DFC202341F20202A2
S3150800280003610023C360836042614FF4A022074935
S315080028108361426200F50052C36103628362C36248
S3150800282043630365D164036310BD00BFFF3F0D0317
S3150800283038B5194B044698420D460BD0174B9842AB
S3150800284008D003F58043984204D04FF4B371144876
S3150800285001F0D1FA25B92046BDE8384001F0DABBC7
S31508002860012204F580535A6040F6FF71204605F0B0
S315080028700F0201F0CBFBA263782101F0C7FB05F03C
S3150800288001036A0748BF43F00203A26C02F0030281
S315080028909A42FAD138BD00BF0000015B00000A5019
S315080028A07E0E0208F8B505460C46164622B94FF4C0
S315080028B009716D4801F09FFA6C4B9D4202D1BCB973
S315080028C0562411E06A4B9D424FD003F580439D4242
S315080028D047D040F22721644801F08DFA44B940F206
S315080028E07631614801F087FA2046FFF7FDF804467D
S315080028F0AB68D90749D5B44204D240F231215A48C7
S3150800290001F079FAB4FBF6F46F68013CFF2C07F086
S31508002910010704D940F23921534801F06CFA24061C
S315080029206FB32821284601F071FBAB6C9A0720D1BA
S31508002930AB6CDB071FD4AE6C16F002061DD140F255
S315080029404621494801F057FA284601F063FB2B69EE
S31508002950314623F07F4323432B61BDE8F840FFF758
S3150800296067BF002CC4D15824BEE7002CC0D1572419
S31508002970BAE70526E8E70926E6E70626E4E72B6927
S3150800298023F07F4323432B61F8BD6B68012B04D0EA
S3150800299040F25921344801F02EFAAB6803F0E003FF
S315080029A0402B42D009D893B1202B1AD040F29B2154
S315080029B0BDE8F8402C4801F01EBA602B42D0802BA7
S315080029C0F4D106EB4603A34247D801230DE0B6EB44
S315080029D0141F04D940F28121234801F00CFA102370
S315080029E003E0B6EBD40F1AD8082373436401B4FB8B
S315080029F0F3F4204F203CB7EBC40F4FEAC40604D2C9
S31508002A0040F2A621184801F0F6F928463E40012171
S31508002A1001F0FCFA2E63BDE8F84001F0F7BA40F27F
S31508002A208621114801F0E7F9DEE70623B4FBF3F344
S31508002A30B34201D30623D8E740F28B210A4801F0B6
S31508002A40DAF9F7E7B6EB940F01D80423CDE74FF48C
S31508002A502471054801F0CFF9F7E740F295210248BD
S31508002A6001F0C9F9B1E700BF7E0E02080000015B5C
S31508002A7000000A50F8FF7F00F8B5884B04469842D4
S31508002A800E460AD0864B984207D003F580439842F3
S31508002A9003D0DF21834801F0AEF91EB9E121814850
S31508002AA001F0A9F9727BB3687AB17F4A934203D9D8
S31508002AB0E3217C4801F09FF93369C3B1DB7BB3B1ED
S31508002AC0E621784801F097F911E0784A934203D94C
S31508002AD0E921744801F08FF9336943B11A7F32B19D
S31508002AE0B168734A5B7F91427DD9042B7DD86368B0
S31508002AF0356923B140F6FF71204601F087FA204672
S31508002B00FFF778FE2269737BB17B22F087020B43BD
S31508002B10134343F080032361002D68D02369297F7E
S31508002B2023F0F80343EAC1132978EA7B0B43297992
S31508002B3043EA4113697A43EA011343EA821323619C
S31508002B40E068D5E9053720F0F0403B4320F47020D3
S31508002B500343287B697B43EA802343EAC133E36066
S31508002B60A368F07B23F00303034343F00103A36048
S31508002B706B88A06803F4C0430343A360A36868791D
S31508002B8043EA8023A360AB79EF79606A1B013F02B1
S31508002B9003F0700307F4E06720F4772020F4EE6072
S31508002BA03B430343287A000300F4E0400343687F6D
S31508002BB0000400F47020034363626369307B23F0EA
S31508002BC00F03034363616B89A361002934D1E2B122
S31508002BD0324B9C423AD0324B9C4258D003F5804344
S31508002BE09C4247D011E0042B81D8F02169E7A368FD
S31508002BF0F27B23F00303134343F00103A3606369E5
S31508002C00327B23F00F0313436361D6E90112204692
S31508002C10FFF748FE05212046FFF70AFE2821204631
S31508002C2001F0F4F93378A36301F0F0F9A36CDB4300
S31508002C3013F4405FFAD1F8BD184B9C420CD1AB7B1C
S31508002C401C4903F00F034B66002ADED02B7C194A79
S31508002C5003F00F031366D8E7114B9C4210D003F517
S31508002C6080439C42D1D1AB7B124903F00F03CB675B
S31508002C70002ACAD02B7C0F4A03F00F039367C4E7D8
S31508002C80AB7B0C4903F00F030B67002ABDD02B7CE6
S31508002C90084A03F00F03D366B7E700BF0000015BDD
S31508002CA000000A507E0E0208002D31018096980019
S31508002CB03F4B4C000090035038B5032804460D4698
S31508002CC005D8094B33F81030CB40DB0704D44FF452
S31508002CD08661064801F08FF8302301225C43044BD5
S31508002CE0AA401A5138BD00BF180F0208A0410008B3
S31508002CF040D0035038B5032804460D4605D8094B7D
S31508002D0033F81030CB40DB0704D440F201410648C3
S31508002D1001F071F8302301225C43044BAA401A5192
S31508002D2038BD00BF180F0208A041000840E0035054
S31508002D302DE9F041032804460D461746984605D85E
S31508002D401D4B33F81030CB40DB0704D44FF4B07179
S31508002D501A4801F050F837B129462046B8F1000F55
S31508002D6020D0FFF7A9FF0F21072D04EB440688BFE3
S31508002D70A5F108034FEA0616114895BFAB009B005C
S31508002D8004360C3607FA03F29940304401F05CF930
S31508002D907FB929462046B8F1000F06D0BDE8F041B4
S31508002DA0FFF78ABFFFF7A6FFDDE7BDE8F041FFF7AB
S31508002DB0A1BFBDE8F08100BF180F0208CC0E0208BB
S31508002DC030C0035010B5044618B991211F4801F0C8
S31508002DD012F823781B0613F0604F03D092211B4884
S31508002DE001F009F8E3780F2B03D99521174801F06C
S31508002DF002F801212020FEF74FFE01212120FEF7CF
S31508002E004BFE0122124B5A60227812069A606178AC
S31508002E10A27842EA01429A61FF229A6200229A63E4
S31508002E201A644FF000425A654FF0FF324FF48001A2
S31508002E3003F500531A65074AC2F88011E3781B01A7
S31508002E40DBB282F81633116010BD00BF200F0208EE
S31508002E500000045000E100E02DE9F0410126C3B26C
S31508002E60072805460C46174606FA03F603DDDE2153
S31508002E70344800F0C0FF1CB9DF21324800F0BBFF20
S31508002E80236823F47C1323F00F031BB1E2212D489A
S31508002E9000F0B1FFA37A1B0413F47C0F03D0E721DB
S31508002EA0284800F0A8FFE37A1B0513F07E6F03D0CD
S31508002EB0E921244800F09FFF237B5B0513F0FE5FA2
S31508002EC003D0EB211F4800F096FF1F4BDFF88080E8
S31508002ED01E65AB00226803F1A04303F588235A60F8
S31508002EE0302202FB0585637B27F003072B66E37A0E
S31508002EF0A27A1B0543EA0243227B43EA4253EB6567
S31508002F002F6701F078F8D8F85430227A3343C8F896
S31508002F1054300E4B02B11E64627A02B19E63227966
S31508002F20A37943EA0243084A93616179E37943EA5C
S31508002F30014306498B61064B56639E64BDE8F04122
S31508002F4001F05FB8200F020800200450001004505A
S31508002F500000045070B506460C46154622B940F2E4
S31508002F60A6210C4800F047FF24B94FF42070FEF75D
S31508002F70BBFD04466D00013CB4FBF5F4064B250287
S31508002F8013EA042304D040F2CB21024800F033FFB1
S31508002F90F56170BDB80F0208070080FF10B5124B27
S31508002FA00446984204D040F25E41104800F023FFE0
S31508002FB0012104F58053596040F6AA6341F20502DF
S31508002FC0636100230A48A360E365E26004F50052E2
S31508002FD02361E361E36490640348A365844204BF04
S31508002FE023656365516010BD00C00550B80F02081F
S31508002FF0FFFF010038B5284B044698420D4604D019
S3150800300040F28131254800F0F6FE2046FFF7C6FF5C
S31508003010012304F5805253602B8AA16843F001030B
S315080030200B43A97B43EA8123A360A368297D43EA6E
S315080030304173A360AB7C4BB1174B9C4202BFE97C42
S31508003040A3F51033C3F8D4118023D3652B7B204610
S31508003050D5E9011243F48053E360FFF77BFF6B7BEE
S315080030600BB1102363616B7D1BB1A36843F48033F6
S31508003070A360AB7D1BB1A36843F40043A360EB7D5B
S315080030802A7E1B07120503F0E04302F4E00213430D
S31508003090A3652B78636138BD00C00550B80F0208D8
S315080030A0034B5A68D20702D5DA69002AF9D1704764
S315080030B000800A50054B9A689107FCD45A68920713
S315080030C0F9D4DA69002AF6D1704700BF00800A50A1
S315080030D008B5FFF7E5FF0222014B1A6108BD00BFDC
S315080030E000800A5008B5FFF7E5FF0122024B03F5F9
S315080030F080514A601A6108BD00800A5008B5044B21
S315080031005968012903D1FFF7E3FF024B596008BD4F
S3150800311000800A5000A00A5010B5064CFFF7CAFFF7
S315080031206368012B03D1FFF7E9FFFFF7C3FF0378B5
S31508003130E36010BD00800A50A8B94A680B78B2B996
S315080031404A7843EA42038A6812B1127843EA82133C
S315080031508A7843EA8203CA6812B1127843EA42239C
S31508003160054A936470477F21044800F044BE1278EC
S3150800317043EAC203E4E700BF00800A5005100208CC
S3150800318010B9044B596470474FF48971024800F02E
S3150800319032BE00BF00900A500510020810B9044B51
S315080031A0596470474FF4A771024800F024BE00BF67
S315080031B000A00A500510020810B9044B196470479C
S315080031C04FF4C571024800F016BE00BF00A00A50B1
S315080031D00510020808B510B9044B186C08BD044858
S315080031E040F2C51100F007FE0020F7E700800A50FC
S315080031F00510020808B520B949B101290AD00020EE
S3150800320008BD4FF41D71054800F0F5FDF7E7044BBE
S31508003210D86CF5E7024B186DF2E700BF05100208F7
S3150800322000800A5018B939B1012908D0704740F210
S315080032301231044800F0DFBD034BDA647047024BD5
S315080032401A6570470510020800800A5007B5094B31
S3150800325018689A889B7900906846ADF804208DF81E
S315080032600630FFF759FA0920FFF78EFA002003B057
S315080032705DF804FB6010020813B50024064A684688
S31508003280536F43F00103536700948DF80440FFF72A
S3150800329077F9204602B010BD0040005030B58BB01B
S315080032A06C46174D0FCD0FC40FCD0FC495E803001C
S315080032B084E80300134BD3F84C2112031CD5A3F55D
S315080032C0FE431C884FF6FF739C4208BF64248DF8A2
S315080032D01940FEF7BFFF204480F308008DF8180058
S315080032E00948FDF7B9FC6846FEF798FE3220FFF755
S315080032F01FF800200BB030BDD3F85041E4B2E6E722
S31508003300681002080080E00FC017530230B587B076
S31508003310084D01AC0FCD0FC42B6801A823602323E9
S315080033208DF80530FEF79CFF3220FEF7FBFF0020E4
S3150800333007B030BD9010020810B56FF00403502195
S315080033400A480B4C13F0800F03F1010207D12344FE
S315080033504F2A83F800131346F4D1002010BD03F05A
S315080033600F03043B034419761346EBE700ED00E030
S3150800337000E100E030B50E4C416123688BB920604E
S3150800338083600DE0891A9A681D4641616AB1134641
S315080033905A698A42F6D935B1A860521A83605A61C9
S315080033A030BD0025F4E72060F7E798608260F7E70C
S315080033B06812002038B500F037FA0025084B094C8A
S315080033C01A682368C31A2AB123B15169994203D3EB
S315080033D0C91A5161206038BD55615B1A9268F2E7D7
S315080033E0681200206412002038B5134D2B685B69FB
S315080033F093B1124A022014681C4400F05FFE20466E
S3150800340000F01AFA00230E492A680B70D088800744
S3150800341009D501230B7038BD022000F04FFE0220AB
S3150800342000F054FAEEE79268002AF4D05069034493
S31508003430012BEBD9EFE700BF6812002064120020C9
S315080034407C12002070B516469DF81420C0E9033694
S315080034500271049ABDF818300260002204460D462F
S315080034608260C380EEB900F0DFF92844A0619DB1FF
S315080034702E4600F0B9FD0546FFF79CFF314620466B
S31508003480FFF778FF104B1B68A34201D1FFF7ACFF8B
S31508003490284600F0ADFD02E0E36865617BB90020CF
S315080034A070BD00F0C1F93044A061002DE0D1E36899
S315080034B06561002BDDD0204621689847D9E720466C
S315080034C021689847EBE700BF6812002000220C49E4
S315080034D00B687BB183420AD183687AB193608368AB
S315080034E01BB15A6941690A445A61002070471A4655
S315080034F09B68EEE70028EFD0022070470B60EEE7E6
S315080035006812002070B500F076FD144E0546347832
S31508003510FCB9134B1C60134B1C60134B1C8000F04A
S3150800352051F9012000F0CAFD00F0EBFD0F4B0246F1
S31508003530186020B9284600F064FD232070BD234694
S3150800354040F2E7310A4800F0C9F90A4B186001232E
S315080035503370284600F055FD0020EFE77D12002065
S315080035606812002064120020741200206C120020D9
S3150800357018FCFFFF6012002070B5044640B300F047
S3150800358033FD144E0546FFF715FF3068A04209D0F3
S315080035902046FFF79BFF0446B0B1284600F028FDF9
S315080035A0204670BDFFF792FF04460028F5D1336820
S315080035B03BB9022000F078F9284600F019FD0024EE
S315080035C0EEE7FFF711FFF7E73368002BF4D1F0E7D2
S315080035D02224E5E76812002038B50C460546A8B14E
S315080035E0A1B100230B7000F006FD0121084B1B68F2
S315080035F033B900F006FD002038BD9D4204D1217084
S315080036002278002AF9D0F4E79B68F1E72220F3E74D
S315080036106812002038B50021044640F2E730054B11
S315080036204FF47A721D680023E5FB040100F056F991
S3150800363038BD00BF6C12002000B58DB001238DF88F
S315080036400F30FFF7E7FF00230146CDE90033074AAD
S315080036500DF10F0304A800F009FD18B99DF80F3005
S31508003660002BFBD10DB05DF804FB00BF67400008D6
S315080036702DE9F843C20704460BD54E4A1388013391
S315080036809BB21380FFF796FE4B4B1B680BB1FFF7F7
S31508003690ABFEA30740F18B8000F0ADFC4FF00008AD
S315080036A005464646FFF786FE434F3C680CB16369FC
S315080036B08BB10022414B012E1A7003D118F0020F6C
S315080036C018BF1E70002C6ED0FFF78EFE2846BDE888
S315080036D0F84300F096BC23465A693AB91A79217913
S315080036E0914288BF1C469B68002BF5D1284600F0FE
S315080036F088FC2569DDB100F097F8A269A0EB0208FD
S315080037004FEAE873A84573F1000311DB23691344F4
S31508003710A361E368B4F80680013613B12046216830
S31508003720984700F068FC0546FFF744FEBDE7A84643
S3150800373000F061FC81462046FFF7C8FE484600F0C7
S3150800374060FC2369002BE4D0B5EB08054FEAE87363
S3150800375063EB4303012D73F1000304DA40F22A51A7
S31508003760174800F048FBA38B33B1E28B13449BB296
S31508003770B3F57A7F0FD2E38300F03DFC80462946F5
S315080037802046FFF7F7FDA369226940461344A36163
S3150800379000F037FCBDE7A3F57A73E383A369013D1F
S315080037A0013BA361E8E7022000F07EF88EE7BDE85A
S315080037B0F88300BF74120020681200207B120020D4
S315080037C0A410020810B586B0002401213E20ADF8E9
S315080037D00810CDE903448DF804408DF80A40059495
S315080037E0FEF75AF901A8FFF797FC204602A98DF8BB
S315080037F00840FFF7A1FC20460F21FFF7CFFC0F2159
S315080038002046FFF7D9FCFFF76DFCFFF749FC40227D
S31508003810034B9C61034BC3F888219A6006B010BD20
S3150800382000800A5000E100E008B5FFF739FC014BBB
S31508003830986908BD00800A50F8B5044600F0D4FB24
S315080038400746FFF72DFC154B9D6900F033FC06462D
S315080038500020FFF7BFFC830704D4731B032B01D892
S31508003860AE420FD10021631B022B98BFEC1C084601
S31508003870B4F1FF3F2CBF2246621EFFF7D3FC02209D
S3150800388000F01CFC384600F0B3FB054B1A7822B151
S315080038900121044A916400221A70F8BD00800A507A
S315080038A03910002000900A50830700F0010106D560
S315080038B00123044A41F002011370034A936400206D
S315080038C0FFF76CBC3910002000A00A50830742BFDE
S315080038D00222014B1A64704700900A5053B94AB93C
S315080038E0002908BF00281CBF4FF0FF314FF0FF30FA
S315080038F000F082B9ADF1080C6DE904CE00F006F8C7
S31508003900DDF804E0DDE9022304B070472DE9F04F45
S31508003910099D0C46002B4DD18A420F468446964691
S31508003920B2FA82F360D94BB102FA03FEC3F1200260
S315080039309F4000FA03FC20FA02F217434FEA1E469C
S315080039401FFA8EF44FEA1C42B7FBF6F106FB117715
S3150800395001FB04F042EA0742904208D91EEB020234
S3150800396001F1FF3702D2904200F231813946121A2C
S315080039701FFA8CFCB2FBF6F006FB102200FB04F4DF
S315080039804CEA024C644508D91EEB0C0C00F1FF32D8
S3150800399002D2644500F21E81104640EA0140ACEBB3
S315080039A0040C002125B12CFA03F30022C5E90032E4
S315080039B0BDE8F08F8B4205D90DB1C5E9000100219C
S315080039C00846F5E7B3FA83F100294DD1A342C0F0C2
S315080039D0F380904280F0F080064623460846002D84
S315080039E0E6D0C5E90063E3E7002B40F0A3808A1A16
S315080039F04FEA1E471FFA8EF60121B2FBF7F407FBC2
S31508003A0014204FEA1C4242EA004206FB04F09042A8
S31508003A100FD91EEB020204F1FF382CBF4FF0010943
S31508003A204FF00009904203D9B9F1000F00F0CC809D
S31508003A304446121A1FFA8CFCB2FBF7F007FB102259
S31508003A4000FB06F64CEA024C664508D91EEB0C0C40
S31508003A5000F1FF3202D2664500F2B3801046ACEBA5
S31508003A60060C40EA04409DE7C1F120068B4004FAA3
S31508003A7001FE22FA06F720FA06FCF4408A401F43A4
S31508003A804EEA0C0300FA01FE4FEA17484FEA1349BB
S31508003A901FFA87FCB4FBF8F008FB104449EA044413
S31508003AA000FB0CF9A1450ED93C1900F1FF3A2CBFD1
S31508003AB04FF0010B4FF0000BA14503D9BBF1000FE6
S31508003AC000F08B805046A4EB09041FFA83F9B4FB77
S31508003AD0F8F308FB134403FB0CFC49EA0444A44529
S31508003AE006D93C1903F1FF3801D2A4457BD84346D1
S31508003AF043EA0040A4EB0C04A0FB02984445CC46DC
S31508003B00434602D306D1CE4504D20138B9EB020C9E
S31508003B1068EB0703002D6CD0BEEB0C0264EB0304C4
S31508003B2022FA01F304FA06F6CC4000211E43C5E941
S31508003B3000643DE702FA03FEC3F1200104FA03F22A
S31508003B4000FA03FCCC404FEA1E4720FA01F11FFA9F
S31508003B508EF6B4FBF7F00A4307FB1044110C41EA52
S31508003B60044100FB06F48C420ED91EEB010100F15C
S31508003B70FF382CBF4FF001094FF000098C4202D9DB
S31508003B80B9F1000F2CD04046091B92B2B1FBF7F4ED
S31508003B9007FB141142EA014204FB06F1914207D9D8
S31508003BA01EEB020204F1FF3801D291421ED84446A8
S31508003BB0521A44EA004120E7861A64EB03030120FF
S31508003BC00DE7F44402384AE7023C724431E7023909
S31508003BD07244CCE6F4440238DFE602383C4472E725
S31508003BE002387144D0E7023B3C4481E7023C724408
S31508003BF0DEE72946DCE600BF704700BF08B5064B7E
S31508003C00044613B10021AFF30080044B1B6803B1CF
S31508003C109847204600F0F0F80000000070120020D7
S31508003C2070B50D4D00260D4C641BA410A64209D193
S31508003C300B4D00260B4C00F093FA641BA410A64209
S31508003C4005D170BD55F8043B01369847EEE755F89F
S31508003C50043B01369847F2E73C1000203C10002050
S31508003C603C10002040100020F0B585B06B4683E874
S31508003C700300BDF80070BDF804602A20BDF80250A4
S31508003C80BDF806407FBAFCF737FB76BA042103A8CD
S31508003C90ADF80C70ADF80E60FCF74AFB2B20FCF76C
S31508003CA02BFB6DBA042164BA03A8ADF80C50ADF825
S31508003CB00E40FCF73DFB05B0F0BD1FB5EF281446D6
S31508003CC018D8EF2916D804ABADF80800ADF80A10D5
S31508003CD0ADF80C00ADF80E1013E90300FFF7C4FFAA
S31508003CE064BA2C20ADF80440FCF706FB022101A8B3
S31508003CF0FCF71EFB04B010BD7FB51D461446531EC7
S31508003D00ADF8080018446B1EADF80A101944ADF852
S31508003D100C0004ABADF80E1013E90300089EFFF77C
S31508003D20A3FF2C206C43FCF7E7FA0025AC4201D12F
S31508003D3004B070BD36F8153002215BBA01A8ADF89B
S31508003D4004300135FCF7F4FAF0E7002101230422D8
S31508003D500846FEF7EDBF08B500F0D6F9FCF7ACFD4E
S31508003D6000F0DFF9FCF738FEFAE7704708B5FFF709
S31508003D70E3FA00F028F8FFF769FAFFF7C7FAFFF742
S31508003D808DFAFCF759FEFFF777FABDE8084000F010
S31508003D9011B8FCF7A7BE08B500F00AF8BDE8084058
S31508003DA0FFF7B0BB7047704770477047704770475A
S31508003DB00F20704708B501213A20FDF76DFEBDE8D2
S31508003DC00840FFF7D2BF01213A20FDF765BEFEE79E
S31508003DD010B53AB1002350F8234041F82340013387
S31508003DE09A42F8D110BD002070474FF40040704742
S31508003DF04FF47A707047FEE7FEE710B588B00C46B8
S31508003E000E99009207910D99024606919DF8301079
S31508003E1005910B9904919DF8281003910021CDE98D
S31508003E20013108462346FCF773FF08B010BD10B5EC
S31508003E3088B004460E98009207900D982246069080
S31508003E409DF8300005900B9804909DF82800039083
S31508003E500020CDE901300B460121FCF759FF08B0D7
S31508003E6010BD0123816480F8543070472DE9F8436A
S31508003E7004460F46E37BE27A007A94F80980A57A2D
S31508003E80217B94F80D90A67B84F8442084F845306D
S31508003E90002F3CD0277F07BB3B460422FEF748FF8E
S31508003EA03B46012249464046FEF742FFA37F0422CD
S31508003EB0012B94BF3B46012331462846FEF738FFBF
S31508003EC0E37F3BB90123042294F8451094F8440093
S31508003ED0FEF72EFF0020BDE8F88300230122FEF737
S31508003EE027FF0023042249464046FEF721FFA37F09
S31508003EF00222012B94BF0023012331462846FEF7F0
S31508003F0017FFE37F002BE5D101230222DCE73B46BE
S31508003F100222FEF70DFF3B46022249464046FEF7BF
S31508003F2007FFA37F0222012B94BF3B46012331469C
S31508003F302846FEF7FDFEE37F002BCBD11A46C3E7E2
S31508003F4010B504460021FEF773FC2046BDE8104074
S31508003F500521FEF76DBC10B504461620FEF7D2FA09
S31508003F6030B994F85430002BFBD005E0FCF7F2FF8B
S31508003F7094F85430002BF9D010BD70B50546144698
S31508003F800E4600F031F82B685C4034405C402C60EB
S31508003F90BDE8704000F02CB808B5FCF753FEBDE844
S31508003FA008400021FDF74CBD0029CCBF01210021A6
S31508003FB0FDF746BD02214FF42070FEF7BFB910B5D4
S31508003FC0FCF72EFE0446FDF771FAC0F10201204601
S31508003FD0FFF7EAFF01210020FEF730FBFEF754FA4F
S31508003FE0BDE81040FDF7C0BEEFF3108072B670470B
S31508003FF000B962B67047EFF31180302383F3118856
S31508004000704780F31188704770477047436D0B42BD
S31508004010FCD1704708B54368DA0714D58368DB070F
S3150800402002D50369D90707D50A2350218363FFF709
S31508004030EDFF836C9A07FCD1012200F500535A6004
S3150800404043689B07FCD408BD70B5054614460E4662
S31508004050FFF7CAFF2B685C4034405C402C60BDE823
S315080040607040FFF7C5BF00230B707047F0B587B0E7
S315080040701F4600230D46164604468DF81730A8B18C
S31508004080C3610DF11701FFF7A7FA9DF817207AB952
S31508004090BDF83430294602939DF830302046CDE9E4
S315080040A000733346FFF7CEF907B0F0BD2220FBE7D1
S315080040B00320F9E700210846FFF79CB800F0010144
S315080040C0830748BF41F002010020FFF759B838B509
S315080040D0FFF791FF04460020FFF77CF8830700F0FE
S315080040E0010548BF45F0020500F003010020FFF76F
S315080040F063F82846FFF7BCFA2046BDE83840FFF7C4
S3150800410080BF3E20FDF7F0BC08B5FFF72FFEFFF78E
S3150800411040FEFFF740FEFFF745FEBDE80840FFF703
S3150800412042BE08B5FFF740FEFFF73FFEFFF73EFE2B
S31508004130BDE80840FFF73BBE02440346934200D160
S31508004140704703F8011BF9E70000000000000000B3
S315080041500000000000000000000000000000000051
S31508004160F8B500BFF8BC08BC9E467047F8B500BF56
S31508004170F8BC08BC9E46704700000000000000001E
S315080041800000000000000000000000000000000021
S315080041900000000000000000000000000000000011
S315080041A02F686F6D652F616261726E696B612F533F
S315080041B0696D706C696369747953747564696F2F76
S315080041C053444B732F6765636B6F5F73646B2F2F55
S315080041D0706C6174666F726D2F656D6C69622F699C
S315080041E06E632F656D5F6770696F2E680000FF0745
S315080041F00F00FF033F0008080808600104100E219D
S315080042000C0245090808262A43707236376F1B0BBD
S315080042100707040E0F09070803180D71ED707018CB
S315080042200F71EF7070181171F17070181371F370C7
S31508004230702829F101F100073C00CD6745451000BB
S315080042400000003C000000015410329810858000E0
S31508004250004E003E07434F554E540000FF070F001F
S31508004260FF033F0000000000003E5149453E004262
S315080042707F400042615149462141454B311814128D
S315080042807F1027454545393C4A494930017109059A
S31508004290033649494936064949291E3E41414122C4
S315080042A03E4141413E3F4040403F7F0408107F0168
S315080042B0017F01010000000000000000000000006E
S315080042C000000000000000000000000000000000E0
S315080042D000000000000000000000000000000000D0
S315080042E000000000000000000000000000000000C0
S315080042F000000000000000000000000000000000B0
S31508006360000000000000FFFFFFF7BEF79FF7BEF72B
S31508006370BEF79EF79EF7BEF79EF7BEF79EF79EF707
S315080063809EF7BEF7BEF79EF79EF79EF7BEF79EF7F7
S315080063909EF79EF7BEF7BEF79EF7BEF7DFFFBEF77E
S315080063A0FFFFFFFF000000000000000000000000E3
S315080063B000000000000000000000000000000000CF
S315080063C000000000000000000000000000000000BF
S315080063D000000000000000000000000000000000AF
S315080063E0000000000000000000000000000000009F
S315080063F0000000000000000000000000000000008F
S31508006400000000000000000000000000000000007E
S31508006410000000000000000000000000000000006E
S31508006420000000000000000000000000000000005E
S31508006430000000000000000000000000000000004E
S31508006440000000000000000000000000000000003E
S31508006450000000000000000000000000000000002E
S31508006460000000000000000000000000000000001E
S31508006470000000000000000000000000000000000E
S3150800648000000000000000000000000000000000FE
S3150800649000000000000000000000000000000000EE
S315080064A000000000000000000000000000000000DE
S315080064B000000000000000000000000000000000CE
S315080064C000000000000000000000000000000000BE
S315080064D000000000000000000000000000000000AE
S315080064E0000000000000000000000000000000009E
S315080064F0000000000000000000000000000000008E
S31508006500000000000000000000000000000000007D
S31508006510000000000000000000000000000000006D
S31508006520000000000000000000000000000000005D
S315080065300000000000000000FFFFFFFFDFFF9EF7DE
S315080065409EF7BEF79EF79EF79EF79EF79EF79EF775
S315080065509EF79EF79EF79EF79EF79EF79EF79EF785
S315080065609EF79EF79EF79EF79EF79EF79EF79EF775
S315080065709EF79EF79EF79EF79EF79EF79EF79EF765
S31508006580BEF79EF79EF7BEF7BEF7BFF7BFF7FFFF4A
S3150800659000000000000000000000000000000000ED
S315080065A000000000000000000000000000000000DD
S315080065B000000000000000000000000000000000CD
S315080065C000000000000000000000000000000000BD
S315080065D000000000000000000000000000000000AD
S315080065E0000000000000000000000000000000009D
S315080065F0000000000000000000000000000000008D
S31508006600000000000000000000000000000000007C
S31508006610000000000000000000000000000000006C
S31508006620000000000000000000000000000000005C
S31508006630000000000000000000000000000000004C
S31508006640000000000000000000000000000000003C
S31508006650000000000000000000000000000000002C
S31508006660000000000000000000000000000000001C
S31508006670000000000000000000000000000000000C
S3150800668000000000000000000000000000000000FC
S3150800669000000000000000000000000000000000EC
S315080066A000000000000000000000000000000000DC
S315080066B000000000000000000000000000000000CC
S315080066C000000000000000000000000000000000BC
S315080066D000000000000000000000000000000000AC
S315080066E0000000000000000000000000000000009C
S315080066F0000000000000000000000000000000008C
S315080067000000000000000000000000000000FFFF7D
S31508006710FFFFBFF79EF79EF79EF79EF79EF79EF739
S315080067209EF79EF79EF79EF79EF79EF79EF79EF7B3
S315080067309EF79EF79EF79EF79EF79EF79EF79EF7A3
S315080067409EF79EF79EF79EF79EF79EF79EF79EF793
S315080067509EF79EF79EF79EF79EF79EF79EF79EF783
S315080067609EF79EF79EF79EF79EF79EF7BEF79EF753
S31508006770BEF7BEF7BEF7BEF7FFFF00000000000039
S3150800678000000000000000000000000000000000FB
S3150800679000000000000000000000000000000000EB
S315080067A000000000000000000000000000000000DB
S315080067B000000000000000000000000000000000CB
S315080067C000000000000000000000000000000000BB
S315080067D000000000000000000000000000000000AB
S315080067E0000000000000000000000000000000009B
S315080067F0000000000000000000000000000000008B
S31508006800000000000000000000000000000000007A
S31508006810000000000000000000000000000000006A
S31508006820000000000000000000000000000000005A
S31508006830000000000000000000000000000000004A
S31508006840000000000000000000000000000000003A
S31508006850000000000000000000000000000000002A
S31508006860000000000000000000000000000000001A
S31508006870000000000000000000000000000000000A
S3150800688000000000000000000000000000000000FA
S3150800689000000000000000000000000000000000EA
S315080068A000000000000000000000000000000000DA
S315080068B000000000000000000000000000000000CA
S315080068C000000000000000000000000000000000BA
S315080068D000000000000000000000000000000000AA
S315080068E0000000000000FFFFFFF7BEF79EF79EF7C7
S315080068F09EF79EF79EF79EF79EF79EF79EF79EF7E2
S315080069009EF79EF79EF79EF79EF79EF79EF79EF7D1
S315080069109EF79EF79EF79EF79EF79EF79EF79EF7C1
S315080069209EF79EF79EF79EF79EF79EF79EF79EF7B1
S315080069309EF79EF79EF79EF79EF79EF79EF79EF7A1
S315080069409EF79EF79EF79EF79EF79EF79EF79EF791
S315080069509EF79EF79EF79EF79EF7BEF7BEF7BEF721
S31508006960FFFF00000000000000000000000000001B
S315080069700000000000000000000000000000000009
S3150800698000000000000000000000000000000000F9
S3150800699000000000000000000000000000000000E9
S315080069A000000000000000000000000000000000D9
S315080069B000000000000000000000000000000000C9
S315080069C000000000000000000000000000000000B9
S315080069D000000000000000000000000000000000A9
S315080069E00000000000000000000000000000000099
S315080069F00000000000000000000000000000000089
S31508006A000000000000000000000000000000000078
S31508006A100000000000000000000000000000000068
S31508006A200000000000000000000000000000000058
S31508006A300000000000000000000000000000000048
S31508006A400000000000000000000000000000000038
S31508006A500000000000000000000000000000000028
S31508006A600000000000000000000000000000000018
S31508006A700000000000000000000000000000000008
S31508006A8000000000000000000000000000000000F8
S31508006A9000000000000000000000000000000000E8
S31508006AA000000000000000000000000000000000D8
S31508006AB000000000000000000000000000000000C8
S31508006AC0FFFF9FF7BEF79EF79EF79EF79EF79EF786
S31508006AD09EF79EF79EF79EF79EF79EF79EF79EF700
S31508006AE09EF79EF79EF79EF79EF79EF79EF79EF7F0
S31508006AF09EF79EF79EF79EF79EF79EF79EF79EF7E0
S31508006B009EF79EF79EF79EF79EF79EF79EF79EF7CF
S31508006B109EF79EF79EF79EF79EF79EF79EF79EF7BF
S31508006B209EF79EF79EF79EF79EF79EF79EF79EF7AF
S31508006B309EF79EF79EF79EF79EF79EF79EF79EF79F
S31508006B409EF79EF79EF79FF7FFFF000000000000E4
S31508006B500000000000000000000000000000000027
S31508006B600000000000000000000000000000000017
S31508006B700000000000000000000000000000000007
S31508006B8000000000000000000000000000000000F7
S31508006B9000000000000000000000000000000000E7
S31508006BA000000000000000000000000000000000D7
S31508006BB000000000000000000000000000000000C7
S31508006BC000000000000000000000000000000000B7
S31508006BD000000000000000000000000000000000A7
S31508006BE00000000000000000000000000000000097
S31508006BF00000000000000000000000000000000087
S31508006C000000000000000000000000000000000076
S31508006C100000000000000000000000000000000066
S31508006C200000000000000000000000000000000056
S31508006C300000000000000000000000000000000046
S31508006C400000000000000000000000000000000036
S31508006C500000000000000000000000000000000026
S31508006C600000000000000000000000000000000016
S31508006C700000000000000000000000000000000006
S31508006C8000000000000000000000000000000000F6
S31508006C9000000000000000000000FFFFBEF7BEF77E
S31508006CA09EF79EF79EF79EF79EF79EF79EF79EF72E
S31508006CB09EF79EF79EF79EF79EF79EF79EF79EF71E
S31508006CC09EF79EF79EF79EF79EF79EF79EF79EF70E
S31508006CD09EF79EF79EF79EF79EF79EF79EF79EF7FE
S31508006CE09EF79EF79EF79EF79EF79EF79EF79EF7EE
S31508006CF09EF79EF79EF79EF79EF79EF79EF79EF7DE
S31508006D009EF79EF79EF79EF79EF79EF79EF79EF7CD
S31508006D109EF79EF79EF79EF79EF79EF79EF79EF7BD
S31508006D209EF79EF79EF79EF7BEF79EF7BEF7FFFF04
S31508006D300000000000000000000000000000000045
S31508006D400000000000000000000000000000000035
S31508006D500000000000000000000000000000000025
S31508006D600000000000000000000000000000000015
S31508006D700000000000000000000000000000000005
S31508006D8000000000000000000000000000000000F5
S31508006D9000000000000000000000000000000000E5
S31508006DA000000000000000000000000000000000D5
S31508006DB000000000000000000000000000000000C5
S31508006DC000000000000000000000000000000000B5
S31508006DD000000000000000000000000000000000A5
S31508006DE00000000000000000000000000000000095
S31508006DF00000000000000000000000000000000085
S31508006E000000000000000000000000000000000074
S31508006E100000000000000000000000000000000064
S31508006E200000000000000000000000000000000054
S31508006E300000000000000000000000000000000044
S31508006E400000000000000000000000000000000034
S31508006E500000000000000000000000000000000024
S31508006E600000000000000000000000000000000014
S31508006E7000000000FFFFBEF79EF7BEF79EF79EF7DD
S31508006E809EF79EF79EF79EF79EF79EF79EF79EF74C
S31508006E909EF79EF79EF79EF79EF79EF79EF79EF73C
S31508006EA09EF79EF79EF79EF79EF79EF79EF79EF72C
S31508006EB09EF79EF79EF79EF79EF79EF79EF79EF71C
S31508006EC09EF79EF79EF79EF79EF79EF79EF79EF70C
S31508006ED09EF79EF79EF79EF79EF79EF79EF79EF7FC
S31508006EE09EF79EF79EF79EF79EF79EF79EF79EF7EC
S31508006EF09EF79EF79EF79EF79EF79EF79EF79EF7DC
S31508006F009EF79EF79EF79EF79EF79EF79EF79EF7CB
S31508006F109EF7BEF7FFFF000000000000000000001B
S31508006F200000000000000000000000000000000053
S31508006F300000000000000000000000000000000043
S31508006F400000000000000000000000000000000033
S31508006F500000000000000000000000000000000023
S31508006F600000000000000000000000000000000013
S31508006F700000000000000000000000000000000003
S31508006F8000000000000000000000000000000000F3
S31508006F9000000000000000000000000000000000E3
S31508006FA000000000000000000000000000000000D3
S31508006FB000000000000000000000000000000000C3
S31508006FC000000000000000000000000000000000B3
S31508006FD000000000000000000000000000000000A3
S31508006FE00000000000000000000000000000000093
S31508006FF00000000000000000000000000000000083
S315080070000000000000000000000000000000000072
S315080070100000000000000000000000000000000062
S315080070200000000000000000000000000000000052
S315080070300000000000000000000000000000000042
S315080070400000000000000000000000000000FFFF34
S315080070509FF79EF7BEF79EF79EF79EF79EF79EF759
S315080070609EF79EF79EF79EF79EF79EF79EF79EF76A
S315080070709EF79EF79EF79EF79EF79EF79EF79EF75A
S315080070809EF79EF79EF79EF79EF79EF79EF79EF74A
S315080070909EF79EF79EF79EF79EF79EF79EF79EF73A
S315080070A09EF79EF79EF79EF79EF79EF79EF79EF72A
S315080070B09EF79EF79EF79EF79EF79EF79EF79EF71A
S315080070C09EF79EF79EF79EF79EF79EF79EF79EF70A
S315080070D09EF79EF79EF79EF79EF79EF79EF79EF7FA
S315080070E09EF79EF79EF79EF79EF79EF79EF79EF7EA
S315080070F09EF79EF79EF7BEF7FFF700000000000018
S315080071000000000000000000000000000000000071
S315080071100000000000000000000000000000000061
S315080071200000000000000000000000000000000051
S315080071300000000000000000000000000000000041
S315080071400000000000000000000000000000000031
S315080071500000000000000000000000000000000021
S315080071600000000000000000000000000000000011
S315080071700000000000000000000000000000000001
S3150800718000000000000000000000000000000000F1
S3150800719000000000000000000000000000000000E1
S315080071A000000000000000000000000000000000D1
S315080071B000000000000000000000000000000000C1
S315080071C000000000000000000000000000000000B1
S315080071D000000000000000000000000000000000A1
S315080071E00000000000000000000000000000000091
S315080071F00000000000000000000000000000000081
S315080072000000000000000000000000000000000070
S315080072100000000000000000000000000000000060
S31508007220000000000000000000009FF7BEF79EF770
S315080072309EF79EF79EF79EF79EF79EF79EF79EF798
S315080072409EF79EF79EF79EF79EF79EF79EF79EF788
S315080072509EF79EF79EF79EF79EF79EF79EF79EF778
S315080072609EF79EF79EF79EF79EF79EF79EF79EF768
S315080072709EF79EF79EF79EF79EF79EF79EF79EF758
S315080072809EF79EF79EF79EF79EF79EF79EF79EF748
S315080072909EF79EF79EF79EF79EF79EF79EF79EF738
S315080072A09EF79EF79EF79EF79EF79EF79EF79EF728
S315080072B09EF79EF79EF79EF79EF79EF79EF79EF718
S315080072C09EF79EF79EF79EF79EF79EF79EF79EF708
S315080072D09EF79EF79EF79EF79EF7BEF79FF7FFFF6E
S315080072E00000000000000000000000000000000090
S315080072F00000000000000000000000000000000080
S31508007300000000000000000000000000000000006F
S31508007310000000000000000000000000000000005F
S31508007320000000000000000000000000000000004F
S31508007330000000000000000000000000000000003F
S31508007340000000000000000000000000000000002F
S31508007350000000000000000000000000000000001F
S31508007360000000000000000000000000000000000F
S3150800737000000000000000000000000000000000FF
S3150800738000000000000000000000000000000000EF
S3150800739000000000000000000000000000000000DF
S315080073A000000000000000000000000000000000CF
S315080073B000000000000000000000000000000000BF
S315080073C000000000000000000000000000000000AF
S315080073D0000000000000000000000000000000009F
S315080073E0000000000000000000000000000000008F
S315080073F0000000000000000000000000000000007F
S3150800740000000000FFFFDFF7BEF79EF79EF79EF726
S315080074109EF79EF79EF79EF79EF79EF79EF79EF7B6
S315080074209EF79EF79EF79EF79EF79EF79EF79EF7A6
S315080074309EF79EF79EF79EF79EF79EF79EF79EF796
S315080074409EF79EF79EF79EF79EF79EF79EF79EF786
S315080074509EF79EF79EF79EF79EF79EF79EF79EF776
S315080074609EF79EF79EF79EF79EF79EF79EF79EF766
S315080074709EF79EF79EF79EF79EF79EF79EF79EF756
S315080074809EF79EF79EF79EF79EF79EF79EF79EF746
S315080074909EF79EF79EF79EF79EF79EF79EF79EF736
S315080074A09EF79EF79EF79EF79EF79EF79EF79EF726
S315080074B09EF79EF79EF79EF79EF79EF79EF79EF716
S315080074C0BFF7FFFF000000000000000000000000FA
S315080074D0000000000000000000000000000000009E
S315080074E0000000000000000000000000000000008E
S315080074F0000000000000000000000000000000007E
S31508007500000000000000000000000000000000006D
S31508007510000000000000000000000000000000005D
S31508007520000000000000000000000000000000004D
S31508007530000000000000000000000000000000003D
S31508007540000000000000000000000000000000002D
S31508007550000000000000000000000000000000001D
